:100000000C948B000C9411050C94EA040C94B70624
:100010000C94B7060C94B7060C94B3000C94B30080
:100020000C94B3000C94B3000C94B3000C94B30084
:100030000C94B3000C94B3000C94B3000C94B30074
:100040000C94A0040C94B3000C946E030C9448031D
:100050000C94B3000C94B3000C94B3000C94B30054
:100060000C9447070C94B300084AD73B3BCE016E73
:1000700084BCBFFDC12F3D6C74319ABD56833DDAFF
:100080003D00C77F11BED9E4BB4C3E916BAAAABE0E
:10009000000000803F000000000800020100000393
:1000A0000407000000000000000000000000240021
:1000B00027002A0000000000250028002B00000077
:1000C000000023002600290004040404040404049E
:1000D00002020202020203030303030301020408F3
:1000E00010204080010204081020010204081020A2
:1000F000693263526561642074696D656F7574005F
:1001000069326352656164206661696C65643A2096
:100110000000281A151A11241FBECFEFD8E0DEBF49
:10012000CDBF26E0A8EEB2E001C01D92AF33B2070A
:10013000E1F712E0A0E0B1E0EAEFF4E402C00590DC
:100140000D92A83EB107D9F710E0CAE8D0E004C08C
:100150002197FE010E945E20C938D107C9F70E948D
:100160004E0D0C9470220C940000FC01538D448DB4
:10017000252F30E0842F90E0821B930B541710F052
:10018000CF96089501970895FC01918D828D98175F
:1001900061F0828DDF01A80FB11D5D968C91928D6B
:1001A0009F5F9F73928F90E008958FEF9FEF089568
:1001B000FC01918D828D981731F0828DE80FF11D31
:1001C000858D90E008958FEF9FEF0895FC01918D4C
:1001D000228D892F90E0805C9F4F821B91098F7345
:1001E000992708958EE794E00E94E60021E0892B8C
:1001F00009F420E0822F0895FC01848DDF01A80F0F
:10020000B11DA35ABF4F2C91848D90E001968F733E
:100210009927848FA689B7892C93A089B1898C915D
:1002200080648C93938D848D981306C00288F38923
:10023000E02D80818F7D80830895EF92FF920F9350
:100240001F93CF93DF93EC0181E0888F9B8D8C8D82
:10025000981305C0E889F989808185FD24C0F62EB0
:100260000B8D10E00F5F1F4F0F731127E02E8C8D49
:10027000E8120CC00FB607FCFACFE889F989808133
:1002800085FFF5CFCE010E94FC00F1CF8B8DFE01E2
:10029000E80FF11DE35AFF4FF0820B8FEA89FB89CB
:1002A0008081806207C0EE89FF896083E889F989CF
:1002B00080818064808381E090E0DF91CF911F9105
:1002C0000F91FF90EF900895CF93DF93EC01888D0D
:1002D0008823C9F0EA89FB89808185FD05C0A8894A
:1002E000B9898C9186FD0FC00FB607FCF5CF8081D0
:1002F00085FFF2CFA889B9898C9185FFEDCFCE011A
:100300000E94FC00E7CFDF91CF91089580E090E05C
:10031000892B29F00E94F20081110C9400000895AD
:10032000089520910506309106062817390771F4C3
:100330009091030680910406981741F0E09103061E
:10034000F0E0E251FC4F808190E008958FEF9FEF45
:10035000089508951F93CF93DF93DC015C962D9150
:100360003C915D972115310539F481E090E01396B9
:100370009C938E9312973DC05196ED91FC915297AC
:1003800050969C915097892F80951FB75E964C91FF
:100390005E9741FB772770F941FD6095F8944081A5
:1003A000772311F0492B01C048234083E9012197AD
:1003B000F1F748E0508160FF02C0592B01C058237B
:1003C0005083E9012197F1F76695415099F777231A
:1003D00021F090818923808303C08081982B9083B2
:1003E0001FBF5C968D919C915D970197F1F721E07D
:1003F00030E0C901DF91CF911F910895209105064A
:10040000309106062817390771F48091040620916F
:10041000030690E0805C9F4F821B910960E470E0CE
:100420000E941720089580E090E00895209105062D
:100430003091060628173907B9F490910306809188
:100440000406981789F0E0910306F0E0E251FC4FB2
:1004500080812091030630E02F5F3F4F2F733327B9
:100460002093030690E008958FEF9FEF089585EDA8
:100470008093BC008091BC0084FDFCCF10927D0471
:1004800008954091C903262F30E0240F311D2132F9
:100490003105DCF420917D042430C9F4FC0180E0B6
:1004A00090E0861758F43091C9032191DC01A955D9
:1004B000BC4FA30FB11D2C930196F3CF8091C903BC
:1004C000680F6093C90380E0089581E0089582E099
:1004D00008950895E091070680910806E81730F422
:1004E000F0E0E95CFB4F808190E008958FEF9FEF93
:1004F00008959091070680910806981750F4E92F07
:10050000F0E0E95CFB4F208130E09F5F90930706AD
:1005100002C02FEF3FEFC90108958091080690E0D7
:1005200020910706821B91090895CF92DF92EF92E6
:10053000FF920F931F93CF93DF937C01262F972F6A
:100540008A0180911706882391F0C62FD72F6E015C
:10055000C40ED51ECC15DD0571F06991D701ED9162
:10056000FC910190F081E02DC7010995F3CF642F34
:10057000822F0E944102C801DF91CF911F910F91FC
:10058000FF90EF90DF90CF900895CF93DF931F926D
:10059000CDB7DEB76983209117062223D1F02091D1
:1005A0003A06203240F021E030E0FC013383228320
:1005B00080E090E015C080911806E82FF0E0E75E3B
:1005C000F94F998190838F5F8093180680933A0644
:1005D00005C061E0CE0101960E94410281E090E0F9
:1005E0000F90DF91CF910895089580E090E00895F5
:1005F000DC01ED91FD918081ED91FD919081ED9176
:10060000FD916C9163708E2309F064609F2309F063
:100610006860E5E1F3E0E60FF11D659565956D9382
:100620006D917D918D919D91099423C01AC012C046
:1006300016C010C01EC009C014C013C006C019C027
:1006400009C00DC007C00DC014C06250704080408A
:1006500090400BC0615070408040904006C06E5F7B
:1006600001C06F5F7F4F8F4F9F4F9E938E937E93FE
:100670006E93089580917105909172050C94F80223
:1006800080916F05909170050C94F8020E945B2296
:100690001F920F920FB60F9211242F933F934F93F7
:1006A0005F936F937F938F939F93AF93BF93EF93DA
:1006B000FF938EE794E00E94FC00FF91EF91BF91C1
:1006C000AF919F918F917F916F915F914F913F91EA
:1006D0002F910F900FBE0F901F9018951F920F92A1
:1006E0000FB60F9211242F938F939F93EF93FF9345
:1006F000E0918E04F0918F048081E0919404F09158
:10070000950482FD12C09081809197048F5F8F7352
:1007100020919804821751F0E0919704F0E0E2589C
:10072000FB4F958F8093970401C08081FF91EF91DB
:100730009F918F912F910F900FBE0F901F90189542
:10074000833081F028F4813099F08230A1F008954F
:100750008730A9F08830B9F08430D1F480918000DE
:100760008F7D03C0809180008F77809380000895F3
:1007700084B58F7702C084B58F7D84BD0895809144
:10078000B0008F7703C08091B0008F7D8093B00060
:1007900008951F93CF93DF93282F30E0F901EA5695
:1007A000FF4F8491F901E452FF4FD491F901E853CE
:1007B000FF4FC491CC23C9F0162F81110E94A003D2
:1007C000EC2FF0E0EE0FFF1FEC54FF4FA591B4911A
:1007D0008FB7F894111105C09C91ED2FE095E92396
:1007E00002C0EC91ED2BEC938FBFDF91CF911F9165
:1007F0000895CF93DF9390E0FC01E452FF4F2491E2
:10080000FC01E853FF4F8491882361F190E0880F49
:10081000991FFC01E655FF4FC591D491FC01EC54A2
:10082000FF4FA591B491611109C09FB7F8948881D9
:10083000209582238883EC912E230BC0623061F4D3
:100840009FB7F8943881822F809583238883EC9119
:100850002E2B2C939FBF06C08FB7F894E8812E2BC8
:1008600028838FBFDF91CF9108953FB7F89480918F
:10087000330490913404A0913504B091360426B528
:10088000A89B05C02F3F19F00196A11DB11D3FBFC8
:10089000BA2FA92F982F8827820F911DA11DB11D56
:1008A000BC01CD0142E0660F771F881F991F4A9552
:1008B000D1F708958F929F92AF92BF92CF92DF921D
:1008C000EF92FF926B017C010E9435044B015C01A9
:1008D000C114D104E104F104F1F00E943504DC01FB
:1008E000CB0188199909AA09BB09883E9340A10543
:1008F000B10570F321E0C21AD108E108F10888EED1
:10090000880E83E0981EA11CB11CC114D104E1041F
:10091000F10419F7DDCFFF90EF90DF90CF90BF90FB
:10092000AF909F908F9008952FB7F89460912F0407
:100930007091300480913104909132042FBF08955A
:100940001F920F920FB60F9211242F933F938F9304
:100950009F93AF93BF9380912F0490913004A09107
:100960003104B091320430912E0423E0230F2D374F
:1009700020F40196A11DB11D05C026E8230F0296A3
:10098000A11DB11D20932E0480932F049093300459
:10099000A0933104B09332048091330490913404D5
:1009A000A0913504B09136040196A11DB11D80932C
:1009B000330490933404A0933504B0933604BF916C
:1009C000AF919F918F913F912F910F900FBE0F90FC
:1009D0001F9018951F920F920FB60F9211242F930C
:1009E0003F934F935F936F937F938F939F93AF93B7
:1009F000BF93EF93FF93E0910601F09107010995F2
:100A0000FF91EF91BF91AF919F918F917F916F91E6
:100A10005F914F913F912F910F900FBE0F901F90BC
:100A200018951F920F920FB60F9211242F933F9398
:100A30004F935F936F937F938F939F93AF93BF93E6
:100A4000EF93FF93E0910401F09105010995FF9167
:100A5000EF91BF91AF919F918F917F916F915F9136
:100A60004F913F912F910F900FBE0F901F901895AF
:100A70002F923F924F925F926F927F928F929F92AE
:100A8000AF92BF92CF92DF92EF92FF920F931F939C
:100A9000CF93DF93CDB7DEB76C970FB6F894DEBF78
:100AA0000FBECDBF1C014D8B5E8B6F8B788FC90144
:100AB000B801D10150962D913D914D915C91539784
:100AC000298B3A8B4B8B5C8B0E94F81D9B01AC01F0
:100AD000F101648B758B868B978BC701B6010E94E1
:100AE000CB1CD1011C962D913D914D915C911F978E
:100AF0000E94F91D6D877E878F87988BD101949610
:100B00002D913D914D915C9197972D833E834F831D
:100B10005887C701B6010E94CB1C4B015C01F10153
:100B2000448C558C668C778C20A131A142A153A1B5
:100B300029873A874B875C87A30192010E94F81DA1
:100B400029853A854B855C850E94F81DF10120813D
:100B50003181428153810E94F91D9B01AC01C70183
:100B6000B6010E94CB1CD10158962D913D914D911B
:100B70005C915B970E94F91D69837A838B839C83C8
:100B8000A5019401C301B2010E94F81D2B013C0193
:100B9000A501940169857A858B859C850E94F81D45
:100BA00069877A878B879C87F1012481358146810B
:100BB0005781C701B6010E94CB1C9B01AC016D811E
:100BC0007E818F8198850E94F91D698F7A8F8B8F26
:100BD0009C8FD10118962D913D914D915C911B9761
:100BE00069817A818B819C810E94F91D6B017C0156
:100BF0009B01AC0169817A818B819C810E94D71E07
:100C00004B015C01A701960169857A858B859C85DE
:100C10000E94D71E6B017C012D853E854F8558892A
:100C20006D897E898F89988D0E94F81D6D837E83E2
:100C30008F8398879B01AC01C501B4010E94CB1C36
:100C40009B01AC016D857E858F8598890E94F91D79
:100C50006D877E878F87988BF1016487758786877C
:100C600097872D813E814F815885C701B6010E942B
:100C7000CB1C9B01AC0169897A898B899C890E9474
:100C8000F91DD10150966D937D938D939C9353974D
:100C900029813A814B815C81C501B4010E94CB1C42
:100CA0009B01AC0169817A818B819C810E94F81D36
:100CB000F101608F718F828F938FA3019201C50123
:100CC000B4010E94CB1C9B01AC01C301B2010E9484
:100CD000F81DD1015C966D937D938D939C935F97E6
:100CE00029813A814B815C81C701B6010E94CB1CEE
:100CF0009B01AC0169857A858B859C850E94F81DD6
:100D0000F10160A371A382A393A3A3019201C70180
:100D1000B6010E94CB1C9B01AC01698D7A8D8B8D35
:100D20009C8D0E94F81DD10194966D937D938D93B7
:100D30009C9397976D857E858F8598896C960FB665
:100D4000F894DEBF0FBECDBFDF91CF911F910F9101
:100D5000FF90EF90DF90CF90BF90AF909F908F90DB
:100D60007F906F905F904F903F902F9008951F92CB
:100D70000F920FB60F9211242F933F934F935F93CF
:100D80006F937F938F939F93AF93BF93EF93FF9353
:100D9000E0910506F0910606309709F451C0968D52
:100DA000A685B785858591FF04C09C91892329F488
:100DB00047C09C91892309F043C0A389B4899C91C1
:100DC0008589809589238C93868997890197F1F786
:100DD000608D718DA685B785558538E020E0CB0103
:100DE0000197F1F7822F90E095958795282F4C91E8
:100DF000452309F02068315091F7868D81FD2095BB
:100E00008091040690E001968F7399273091030634
:100E1000381749F0A0910406B0E0A251BC4F2C93C2
:100E20008093040603C0868D8160868F828D938DAA
:100E30000197F1F7A389B4899C918589892B8C93BB
:100E4000FF91EF91BF91AF919F918F917F916F91A2
:100E50005F914F913F912F910F900FBE0F901F9078
:100E60001895E0910506F0910606E817F90769F470
:100E7000A389B4899C918589809589238C9310924C
:100E800006061092050681E0089580E008951F92FD
:100E90000F920FB60F9211242F933F934F935F93AE
:100EA0006F937F938F939F93AF93BF93EF93FF9332
:100EB0008091B900887F803609F49CC068F588323B
:100EC00009F45BC090F4803109F454C038F48823ED
:100ED00009F4F6C0883009F44DC0F6C0883109F431
:100EE0004CC0803209F45DC0EFC0803409F468C0A2
:100EF00048F4803309F455C0883309F0E5C0809385
:100F00007B04D8C0803509F44FC0883509F45DC032
:100F1000883409F0D9C0D6C0883909F4C7C0A8F40C
:100F2000883709F467C038F4883609F463C080371D
:100F300009F460C0C9C0883809F4B8C0803909F420
:100F40005FC0803809F0C0C05BC0803B09F486C038
:100F500038F4803A09F466C0883A09F47FC0B4C016
:100F6000803C09F4A7C0883C09F4A4C0883B09F47C
:100F70008AC0AAC08091780410C090917A048091B0
:100F80007904981770F5E0917A0481E08E0F8093D0
:100F90007A04F0E0E95AFB4F80818093BB0085EC36
:100FA00086C080937B048EC0E0917A0481E08E0F2E
:100FB00080937A048091BB00F0E0E95AFB4F808374
:100FC00090917A04809179046EC0E0917A0481E076
:100FD0008E0F80937A048091BB00F0E0E95AFB4FBA
:100FE000808380917C0481116DC081E080937704BF
:100FF00084EA61C083E080937D041092ED03CFCF3B
:101000008091ED03803208F051C0E091ED0381E062
:101010008E0F8093ED038091BB00F0E0E353FC4F13
:101020008083BDCF85EC8093BC0010927D048091BD
:10103000ED03803230F4E091ED03F0E0E353FC4F38
:1010400010826091ED0370E0E091CB03F091CC034E
:101050008DEC93E009951092ED0336C084E0809307
:101060007D041092CA031092C903E091C703F09166
:10107000C80309958091C903811105C081E080935F
:10108000C9031092A703E091CA0381E08E0F8093F9
:10109000CA03F0E0E955FC4F80818093BB0090913A
:1010A000CA038091C903981708F479CF85E8809323
:1010B000BC000AC085EC8093BC0010927D0404C083
:1010C00010927B040E943702FF91EF91BF91AF9184
:1010D0009F918F917F916F915F914F913F912F9150
:1010E0000F900FBE0F901F9018954F925F926F92C6
:1010F0007F92AF92BF92CF92DF92EF92FF920F93C7
:101100001F93CF93DF935C016B010E9494042B012A
:101110003C01C0E0D0E00D2C000CEE08FF08CA1521
:10112000DB051CF50E949404DC01CB0184199509B0
:10113000A609B7098C159D05AE05BF05B0F48E0153
:1011400008511D4F8FE795E00E94FE011816190601
:1011500034F721968FE795E00E941602F8018193FB
:101160008F01CF33D10574F3DACFCE01DF91CF9168
:101170001F910F91FF90EF90DF90CF90BF90AF90B5
:101180007F906F905F904F900895E0917E04F09172
:101190007F040190F081E02D682F8EE794E00994A0
:1011A0004F925F926F927F928F929F92AF92BF9277
:1011B000CF92DF92EF92FF926B017C01B42E9B01E4
:1011C000AC010E94FD1F882319F06BED72E027C06F
:1011D00026013701E89477F82FEF3FEF4FE75FE7FD
:1011E000C301B2010E94FD1F81110DC02FEF3FEF1F
:1011F0004FE75FE7C301B2010E94651C18161CF49B
:101200006FED72E00CC02FEF3FEF4FE75FE4C701D7
:10121000B6010E94A61F181694F463EE72E08EE7E2
:1012200094E0FF90EF90DF90CF90BF90AF909F90B1
:101230008F907F906F905F904F900C940B0C2FEFDE
:101240003FEF4FE75FECC701B6010E94651C87FDC9
:10125000E4CF20E030E0A901C701B6010E94651C7F
:1012600087FF09C08DE20E94C5084C01F7FAF0948F
:10127000F7F8F09402C0812C912CA12C60E070E072
:1012800080E09FE3AB1441F020E030E040E251E425
:101290000E94D71EA394F6CF9B01AC01C701B601F3
:1012A0000E94F91D2B013C010E94501F6B017C0123
:1012B0000E946A1C9B01AC01C301B2010E94F81D8F
:1012C0002B013C012AE0B701A6018EE794E00E94C1
:1012D000920C7C01E80CF91CBB2029F08EE20E94E4
:1012E000C508E80EF91EDB2CDD2031F120E030E0EE
:1012F00040E251E4C301B2010E94CB1C2B013C012E
:101300000E94501F4B01A12CB12C2AE0B501A40171
:101310008EE794E00E94920CE80EF91EC501B4011C
:101320000E946A1C9B01AC01C301B2010E94F81D1E
:101330002B013C01DA94D8CFC701FF90EF90DF90EA
:10134000CF90BF90AF909F908F907F906F905F9065
:101350004F900895CF93DF930E94D008EC0163E58E
:1013600071E08EE794E00E940B0C8C0F9D1FDF91C3
:10137000CF910895EEE7F4E0A089B18982E08C93E3
:10138000A485B5851C92A685B78587E68C93108EBB
:10139000A489B58986E08C93A289B3898C918061F8
:1013A0008C93A289B3898C9188608C93A289B3892C
:1013B0008C9180688C930288F389E02D80818F7DE9
:1013C00080830895682F83E695E00C94C502CF9240
:1013D000DF92EF92FF920F931F93CF93DF93D09101
:1013E0009F05DD2321F10091A5051091A605C12CD3
:1013F000D12C7601C0E0F8012191319141915191B8
:101400008F01C701B6010E94F91D6B017C01CF5FFE
:10141000CD13F1CF6C2F70E080E090E00E946C1C47
:101420009B01AC01C701B6010E94D71E04C060E059
:1014300070E080EC9FE7DF91CF911F910F91FF90BB
:10144000EF90DF90CF900895CF93DF939B01672BB0
:1014500061F4E0917E04F0917F040190F081E02D31
:10146000682F8EE794E0099508C0482F50E060E0AF
:1014700070E08EE794E00E94920CEC0163E571E06D
:101480008EE794E00E940B0C8C0F9D1FDF91CF9193
:10149000089590917D049111FCCF91E090937D048B
:1014A00090937C042FEF20937B0410927A04260FF4
:1014B000209379049093780490917804880F892B75
:1014C0008093780480917704813061F410927704DE
:1014D000809178048093BB008091BC0083FDF8CF9D
:1014E00085EC01C085EE8093BC0080917D04813045
:1014F000E1F380917A04861710F460917A04A7E5ED
:10150000B4E027E334E0F9018E2F821B861718F42C
:101510008D918193F9CF862F0895382F20913A0627
:1015200090913906213208F049C080917D048111E3
:10153000FCCF42E040937D0430937C043FEF309336
:101540007B0410927A0420937904A9E1B6E047E580
:1015500054E0FA013E2F341B321718F43D913193B9
:10156000F9CF1092780420917804990F922B9093E0
:10157000780490917704913061F4109277049091FF
:1015800078049093BB009091BC0093FDF8CF95EC4C
:1015900001C095EE9093BC0090917D049230E1F3F0
:1015A00090917B049F3F79F080917B04803241F0E1
:1015B00080917B04803331F084E005C081E003C07A
:1015C00082E001C083E01092180610923A06109251
:1015D000170608950F931F93CF93DF938C01C0E0FC
:1015E000D0E0F801EC0FFD1F6491662371F0E091EB
:1015F0007E04F0917F040190F081E02D8EE794E06D
:101600000995892B11F02196ECCFCE01DF91CF9176
:101610001F910F910895CF92DF92EF92FF920F9357
:101620001F93CF93DF936C017A018B01C0E0D0E070
:10163000CE15DF0589F0D8016D918D01D601ED91B0
:10164000FC910190F081E02DC6010995892B11F4E0
:101650007E0102C02196ECCFC701DF91CF911F918F
:101660000F91FF90EF90DF90CF90089581E00C9460
:101670008D0A813208F080E2682F88E60E94490ACC
:10168000109207068093080608959B01AC01109202
:101690009A0510929905109298051092970510924C
:1016A00096051092950560E079E08DE390E00E9448
:1016B0002B20F9012430310518F0C901039702C02D
:1016C00081E090E090939C0580939B0590918B0521
:1016D000963108F075C0B90176956795643171054A
:1016E00018F06351710902C061E070E070939605D3
:1016F00060939505369720F0B9016550710902C0D5
:1017000061E070E07093980560939705B901660FEA
:10171000771F260F371F36952795369527952D303D
:10172000310518F02C50310902C021E030E030932F
:101730009A052093990520916800983050F031E087
:101740009E3008F430E081E001C0880F3A95EAF756
:1017500001C084E0822B80936800983038F09E307E
:1017600040F0963148F020E030E008C02DE630E04F
:1017700005C02BE630E002C02CE630E03093930544
:1017800020939205983030F481E001C0880F9A953B
:10179000EAF70EC0292F30E09E3018F428503109A6
:1017A00002C02E50310981E001C0880F2A95EAF766
:1017B0008093940580919B0590919C050197F1F78A
:1017C0008091990590919A05892B21F180910506C8
:1017D0009091060625E08F379207E1F0009711F00F
:1017E0000E94310780919D058E7F80939D05109208
:1017F0000406109203068FE795E090930606809307
:101800000506E0919205F0919305908180919405F1
:10181000892B808308956115710579F0FB01019092
:101820000020E9F73197AF01461B570BDC01ED9122
:10183000FC910280F381E02D099480E090E008950E
:10184000CF92DF92EF92FF920F931F93CF93DF938C
:10185000D82F81E08093170688E68093390610928E
:10186000180610923A066BE383E695E00E94C502E3
:1018700080E00E948D0AC82F882359F080E091E013
:101880000E94EA0A6AE070E08C2F0E94240A8C2FE2
:1018900040C06D2FD13208F060E288E60E94490A0C
:1018A000C82F109207068093080689E0E82E86E08C
:1018B000F82E8701802F8E198D17F0F4809107067E
:1018C000C81741F083E695E00E947902F801819300
:1018D0008F01F0CF0E9435046B017C010E9435041A
:1018E000DC01CB018C199D09AE09BF09883E9340EC
:1018F000A105B10518F4F2CF80E00BC080EF90E0B5
:101900000E94EA0A63E571E08EE794E00E940B0C06
:1019100085E0DF91CF911F910F91FF90EF90DF90C5
:10192000CF9008954F925F926F927F92EF92FF92C5
:101930000F931F93CF93DF93CDB7DEB7A1970FB669
:10194000F894DEBF0FBECDBF7C01FA01CB0119A216
:10195000223008F42AE08E010F5D1F4F422E512CD9
:10196000612C712CBF01A30192010E949F1DF901FE
:10197000CA01015011096A3014F4605D01C0695C4C
:10198000D8016C93232B242B252B61F7B801C701B9
:101990000E940B0CA1960FB6F894DEBF0FBECDBF10
:1019A000DF91CF911F910F91FF90EF907F906F90FB
:1019B0005F904F900895CF92DF92EF92FF92CF9376
:1019C000DF936B017C014115510581F4E0917E04A8
:1019D000F0917F040190F081E02D8EE794E0DF919B
:1019E000CF91FF90EF90DF90CF9009944A3051054E
:1019F000E9F497FF19C08DE20E94C508EC01442765
:101A00005527BA014C195D096E097F092AE08EE756
:101A100094E00E94920C8C0F9D1FDF91CF91FF905C
:101A2000EF90DF90CF9008952AE001C0242FB701F6
:101A3000A6018EE794E0DF91CF91FF90EF90DF90C9
:101A4000CF900C94920CCF93DF93AB01BC01990F14
:101A5000880B990B0E94DB0CEC0163E571E08EE7CB
:101A600094E00E940B0C8C0F9D1FDF91CF91089585
:101A70000F931F93CF93DF93EC010E940B0C8C010B
:101A800063E571E0CE010E940B0C800F911FDF9186
:101A9000CF911F910F9108950C940B0CCF93DF936E
:101AA000CDB7DEB760970FB6F894DEBF0FBECDBFDF
:101AB000789484B5826084BD84B5816084BD85B529
:101AC000826085BD85B5816085BD80916E00816035
:101AD00080936E00109281008091810082608093DB
:101AE00081008091810081608093810080918000DD
:101AF0008160809380008091B10084608093B10008
:101B00008091B00081608093B00080917A00846001
:101B100080937A0080917A00826080937A0080912D
:101B20007A00816080937A0080917A008068809347
:101B30007A001092C10010925F0510926005109219
:101B400061051092620510921D0510921E051092FB
:101B50001F05109220050E9494042B013C016B018B
:101B60007C0128EBC20E2BE0D21EE11CF11C0E946E
:101B70009404641575058605970528F0C616D706E2
:101B8000E806F906A0F78EE794E090935E0580934F
:101B90005D050E94BA090E94940460931D0570932C
:101BA0001E0580931F059093200564E471E08091E9
:101BB0005D0590915E050E944C0D0E9494042B01DE
:101BC0003C016B017C013AE0C30ED11CE11CF11C0D
:101BD0000E949404641575058605970528F0C616BD
:101BE000D706E806F906A0F781E080933105109248
:101BF0000706109208061092180610923A061092E4
:101C00007D0480937C041092770461E082E10E945D
:101C1000C90361E083E10E94C9038091B9008E7F0E
:101C20008093B9008091B9008D7F8093B90088E4DA
:101C30008093B80085E48093BC008CE08093B8006A
:101C40000E94BA0966E571E08EE794E00E94380DC3
:101C500010929F051092A0051092A1051092A20566
:101C60001092A3051092A40580E090E0A0ECBFE7DD
:101C70008093A7059093A805A093A905B093AA0502
:101C80008093AB059093AC05A093AD05B093AE05E2
:101C90002091A5053091A60580E090919E058917B9
:101CA00060F4F90194E0899FE00DF11D1124108288
:101CB0001182128213828F5FF0CF60E875E280E0BC
:101CC00090E00E94450B02E313E0E12CF12CC701E8
:101CD0000E94891DD8018D938D01BFEFEB1AFB0A7D
:101CE000ECE0EE16F10499F763E771E08EE794E01B
:101CF0000E944C0D60913203709133038091340344
:101D00009091350342E050E00E94AA0940903A03C6
:101D100050903B0360903C0370903D0320E030E026
:101D200048E453E4C301B2010E94651C87FD20C052
:101D300020E030E048E453E46091360370913703CB
:101D400080913803909139030E94651C87FD10C073
:101D500020E030E048E453E46091320370913303B3
:101D600080913403909135030E94651C87FF29C040
:101D70008091320390913303A0913403B0913503E5
:101D80008093700390937103A0937203B0937303D5
:101D90008091360390913703A0913803B0913903B5
:101DA0008093680390936903A0936A03B0936B03D5
:101DB00040926403509265036092660370926703D9
:101DC0002AC062E871E08EE794E00E94380D86E652
:101DD00096E6A6EBB0E48093700390937103A09312
:101DE0007203B093730383E393E3A3EFBFE38093A2
:101DF000680390936903A0936A03B0936B038AE925
:101E000099E9A9E5B0E48093640390936503A093F6
:101E10006603B09367036AE070E080E090E00E94A0
:101E200091218C01009751F0DC011C926EE971E068
:101E30000E94692229E0E22EF12C02C0E12CF12C53
:101E400061E08BE00E94F90360E08BE00E94C9032F
:101E500068EC70E080E090E00E945A04A701B801AD
:101E60008FE795E00E940B0B63E571E08FE795E04B
:101E70000E940B0C68EC70E080E090E00E945A0435
:101E800065E070E081E090E00E9475087C01FC0153
:101E9000E851FD4F108268EA71E08EE794E00E94FD
:101EA000380D4091E80250E060E070E02AE08EE7F3
:101EB00094E00E94920C6AE070E0C70101960E94D3
:101EC000230D8091E802893569F064EF71E080E0CC
:101ED00090E00E945A0465EB71E08EE794E00E9466
:101EE000380DF3CF62ED71E08FE795E00E94380D79
:101EF00062E370E080E090E00E945A0467E370E0E3
:101F000088E590E00E9475087C0169ED71E08EE73C
:101F100094E00E944C0D6AE070E0C7010E94230D1E
:101F2000F701E851FD4F10828FE795E00E943107DD
:101F300061E08BE00E94C90368EC70E080E090E013
:101F40000E945A0460E07BE480E090E00E94450B30
:101F50006CED75E080E090E00E945A0462EF71E061
:101F60008FE795E00E94380D809170039091710386
:101F7000A0917203B091730380937A0390937B03D3
:101F8000A0937C03B0937D038091680390916903D3
:101F9000A0916A03B0916B0380937E0390937F03BB
:101FA000A0938003B09381038091640390916503B3
:101FB000A0916603B091670380938203909383039B
:101FC000A0938403B0938503FF24F394F0927903E4
:101FD0008FEF809386034EE050E069E773E08FE770
:101FE00095E00E940B0B64EF71E080E090E00E94AE
:101FF0005A0482E08093790380910001909101015D
:10200000A0910201B091030180937A0390937B0326
:10201000A0937C03B0937D0310927E0310927F0304
:102020001092800310928103109282031092830316
:1020300010928403109285034EE050E069E773E04C
:102040008FE795E00E940B0B64EF71E080E090E079
:102050000E945A04C8010E94F9201092810082EA6D
:10206000809380008FE193E09093870080938600B7
:1020700010928500109284001092890010928800BE
:1020800010928B0010928A0010926F00219A229A6F
:1020900089E18093810060E272E08EE794E00E9423
:1020A000380D61E372E08EE794E00E94380DF09203
:1020B000170688E6809339061092180610923A06A1
:1020C00085E790E00E94E2090E94360B6AE472E024
:1020D0008EE794E00E94380D81E090E00E94390B79
:1020E0008091080690E020910706821B910918163E
:1020F0001906ECF783E695E00E947902883691058F
:1021000061F463E672E08EE794E00E944C0D60E1BA
:1021100070E088E690E00E94230D01E0009317062E
:1021200018E6109339061092180610923A068BE6BC
:1021300090E00E94E20980E090E00E94E2090E94A3
:10214000360B00931706109339061092180610925A
:102150003A068BE190E00E94E20980E090E00E9464
:10216000E2090E94360B009317061093390610926D
:10217000180610923A068CE190E00E94E20988E08D
:1021800090E00E94E2090E94360B0093170610931C
:1021900039061092180610923A068AE190E00E94E1
:1021A000E20983E090E00E94E2090E94360B6FE7AB
:1021B00072E08EE794E00E94380D6DE872E08EE7E1
:1021C00094E00E94380D10922E0310922F0310926B
:1021D00030031092310310922A0310922B031092B5
:1021E0002C0310922D031092290310922803B3EAB6
:1021F0004B2EB0E05B2E19EE612E10E0712E05ED36
:1022000010E0DD24D39488E6C82E9BEC892E99E358
:10221000992EE0902803F090290384EFE81681E0DE
:10222000F8060CF092C0C7016FE070E00E94172022
:10223000BC01892B09F5F2018491F3013490F80176
:1022400024902220A1F081110E94A003E22DF0E051
:10225000EE0FFF1FE254FF4FA591B4918C91982F80
:10226000932121E080E009F420E0622F782FF1E053
:102270006F278DE00E94C903D0921706C0923906DD
:102280001092180610923A0683E490E00E94E20948
:102290000E94360B84E090E00E94390B83E695E0C3
:1022A0000E947902382E83E695E00E9479023A82F4
:1022B000198229813A81822B932B092E000CAA0BBB
:1022C000BB0B40912A0350912B0360912C0370911A
:1022D0002D03840F951FA61FB71F80932A03909389
:1022E0002B03A0932C03B0932D0383E695E00E946B
:1022F0007902382E83E695E00E947902B32CA12C56
:102300008A299B29092E000CAA0BBB0B40912E0396
:1023100050912F036091300370913103840F951F0A
:10232000A61FB71F80932E0390932F03A093300313
:10233000B0933103C4010197F1F73FEFE31AF30AB9
:10234000F0922903E092280364CF60912E037091EC
:102350002F038091300390913103E4EFCE2EDD24E2
:10236000D394E12CF12CA70196010E942B202093FD
:102370002E0330932F034093300350933103609129
:102380002A0370912B0380912C0390912D03A701B8
:1023900096010E942B2020932A0330932B03409315
:1023A0002C0350932D0360EA72E08EE794E00E94C4
:1023B000380D60912E0370912F038091300390911E
:1023C00031034AE050E00E94DB0C6CE971E08EE7DB
:1023D00094E00E944C0D60912A0370912B03809130
:1023E0002C0390912D034AE050E00E94DB0C63E542
:1023F00071E08EE794E00E940B0C86E00E94200CB6
:102400008111FBCF6091090670E0762F66278091DD
:102410000A06682B072E000C880B990B0E946C1C77
:102420002B013C0160935C0370935D0380935E031A
:1024300090935F0360910B0670E0762F6627809182
:102440000C06682B072E000C880B990B0E946C1C45
:102450004B015C01609358037093590380935A03B6
:1024600090935B0360910D0670E0762F6627809154
:102470000E06682B072E000C880B990B0E946C1C13
:102480006B017C0160935403709355038093560352
:10249000909357039B01AC01C501B4010E94781EC3
:1024A00069837A838B839C83A5019401C501B40160
:1024B0000E94CB1C4B015C01A7019601C701B6012C
:1024C0000E94CB1C9B01AC01C501B4010E94F91D07
:1024D0000E94B91F9B01AC01C301B20190580E9438
:1024E000D71E0E94A81E6B017C0121EE3EE245E64C
:1024F00052E469817A818B819C810E94CB1C60931C
:10250000E3057093E4058093E5059093E60521EEDD
:102510003EE245E652E4C701B6010E94CB1C60933F
:10252000BB057093BC058093BD059093BE0580915B
:10253000000190910101A0910201B09103018093EB
:102540009D0390939E03A0939F03B093A0031092CA
:102550008703109288031092890310928A038FE6F2
:1025600092E1A3E8BAE38093AF059093B005A093FE
:10257000B105B093B20586EA9BE9A4E4BBE380937E
:10258000B3059093B405A093B505B093B6058FE855
:1025900092ECA5EFBCE38093B7059093B805A093A8
:1025A000B905B093BA051092A6030E943504DC0168
:1025B000CB018056904FAF4FBF4F809399039093BC
:1025C0009A03A0939B03B0939C030E9435046093ED
:1025D0008F03709390038093910390939203609381
:1025E0008B0370938C0380938D0390938E030E94D2
:1025F0009404DC01CB0188519C4FAF4FBF4F8093B7
:10260000930390939403A0939503B09396035FE193
:10261000252E53E0352E8FE795E00E94FE01892B91
:1026200009F4ABC1E8EEF2E0A3E0E832FA0719F0F2
:1026300090E39193F9CF68EC70E08EE090E00E9417
:1026400075088C016AE070E00E94230D0E301105C0
:1026500009F093C160E170E08091E8020E94240AD1
:1026600060E170E08091E9020E94240A60E170E07C
:102670008091EA020E94240A60E170E08091EB02FE
:102680000E94240A60E170E08091EC020E94240A1A
:1026900061EB72E08EE794E00E94380D6091E902F0
:1026A0007091EA028091EB029091EC0242E00E946C
:1026B000D0088091E8028111EEC08091E9028093F8
:1026C0003E038091EA0280933F038091EB02809366
:1026D00040038091EC0280934103C0903E03D09070
:1026E0003F03E0904003F090410320E030E0A90177
:1026F000C701B6010E94A61F181694F420E030E02E
:1027000048E453E4C701B6010E94651C87FF08C076
:10271000C0927003D0927103E0927203F09273033F
:102720008091ED0280933E038091EE0280933F03FF
:102730008091EF02809340038091F00280934103E7
:10274000C0903E03D0903F03E0904003F0904103DF
:1027500020E030E0A901C701B6010E94A61F1816AB
:1027600094F420E030E048E453E4C701B6010E944D
:10277000651C87FF08C0C0926803D0926903E0928D
:102780006A03F0926B038091F10280933E03809183
:10279000F20280933F038091F30280934003809183
:1027A000F40280934103C0903E03D0903F03E09039
:1027B0004003F090410320E030E0A901C701B601D9
:1027C0000E94A61F181694F420E030E048E453E479
:1027D000C701B6010E94651C87FF08C0C092640350
:1027E000D0926503E0926603F092670380916803DC
:1027F00090916903A0916A03B0916B0380933603B3
:1028000090933703A0933803B09339038091640306
:1028100090916503A0916603B091670380933203A2
:1028200090933303A0933403B093350363EC72E0C9
:102830008EE794E00E944C0D6091700370917103DB
:10284000809172039091730342E00E94D00868EC7B
:1028500072E08EE794E00E944C0D609168037091E5
:10286000690380916A0390916B0342E00E94D00853
:102870006DEC72E08EE794E00E944C0D6091640371
:1028800070916503809166039091670342E050E088
:102890000E94AA0972C0813091F492E3E92E93E07C
:1028A000F92E00E010E0F70161917F01C8010E945C
:1028B000911D0F5F1F4F0C301105A9F75EC08230CC
:1028C00051F48091E902813019F48093780355C066
:1028D0001092780352C0833009F04FC08091E90212
:1028E00080933E038091EA0280933F038091EB0244
:1028F000809340038091EC0280934103C0903E039B
:10290000D0903F03E0904003F090410320E030E09E
:10291000A901C701B6010E94A61F181694F420E071
:1029200030E040EA50E4C701B6010E94651C87FF11
:1029300008C0C0920001D0920101E0920201F09221
:102940000301609100017091010180910201909159
:10295000030142E050E00E94AA0980910001909199
:102960000101A0910201B091030180939D03909316
:102970009E03A0939F03B093A0038EE00E94200CBF
:102980008111FBCF6091090670E0762F6627809158
:102990000A06682B072E000C880B990B0E946C1CF2
:1029A0002B013C0160935C0370935D0380935E0395
:1029B00090935F0360910B0670E0762F66278091FD
:1029C0000C06682B072E000C880B990B0E946C1CC0
:1029D0004B015C01609358037093590380935A0331
:1029E00090935B0360910D0670E0762F66278091CF
:1029F0000E06682B072E000C880B990B0E946C1C8E
:102A00006B017C01609354037093550380935603CC
:102A10009093570380910F0690E0982F882720917C
:102A20001006822B909353038093520360911106FA
:102A300070E0762F662780911206682B072E000C17
:102A4000880B990B0E946C1C6D837E838F83988703
:102A500060934E0370934F03809350039093510300
:102A60006091130670E0762F662780911406682B1C
:102A7000072E000C880B990B0E946C1C69877A87C3
:102A80008B879C8760934A0370934B0380934C031E
:102A900090934D036091150670E0762F6627809124
:102AA0001606682B072E000C880B990B0E946C1CD5
:102AB00060934603709347038093480390934903C0
:102AC0000E94350400918F0310919003209191038F
:102AD00030919203601B710B820B930B0E946A1C56
:102AE00020E034E244E759E40E94D71E6D877E87D8
:102AF0008F87988B0E94350460938F0370939003A7
:102B00008093910390939203A7019601C501B401AC
:102B10000E94781E21EE3EE245E652E40E94CB1C64
:102B200069837A838B839C83A5019401C501B401D9
:102B30000E94CB1C4B015C01A7019601C701B601A5
:102B40000E94CB1C9B01AC01C501B4010E94F91D80
:102B50000E94B91F9B01AC01C301B20190580E94B1
:102B6000D71E0E94A81E21EE3EE245E652E40E94D6
:102B7000CB1C2B013C0120E030E043E053E46985AD
:102B80007A858B859C850E94D71E4B015C0120E0D5
:102B900030E044EB52EC69817A818B819C810E9408
:102BA000651C87FF10C020E030E044EB52E46091E8
:102BB00042037091430380914403909145030E9426
:102BC000A61F1816E4F020E030E044EB52E46981DF
:102BD0007A818B819C810E94A61F18162CF520E01B
:102BE00030E044EB52EC60914203709143038091DA
:102BF0004403909145030E94651C87FF15C089819D
:102C00009A81AB81BC818093E3059093E405A09306
:102C1000E505B093E6058093420390934303A093A8
:102C20004403B093450320C020E030E043E053E488
:102C30006D817E818F8198850E94D71E8B019C01BA
:102C4000CD84DE84EF84F88849815A816B817C8150
:102C500087ED95E00E94380560934203709343032B
:102C60008093440390934503609142037091430322
:102C700080914403909145030E94491F9B0177FF77
:102C800004C022273327261B370B2B35310524F0B0
:102C9000B7FAB094B7F8B094CD84DE84EF84F888A6
:102CA00095018401B301A2018FEA95E00E943805E5
:102CB0006B017C016093A2037093A3038093A40330
:102CC0009093A5030E94350460938F037093900343
:102CD00080939103909392032091A103213009F0F6
:102CE000A6C100918B0310918C0320918D0330912C
:102CF0008E03601B710B820B930B0E946A1C20E0F9
:102D000034E244E759E40E94D71E2B013C01A7019D
:102D1000960160919D0370919E0380919F03909115
:102D2000A0030E94F81D4B015C01209170033091BB
:102D3000710340917203509173030E94CB1C69830D
:102D40007A838B839C8320E030E048EC52E46091EE
:102D500068037091690380916A0390916B030E94EC
:102D6000CB1CA50194010E94CB1CA30192010E94DF
:102D7000CB1C20916C0330916D0340916E035091F8
:102D80006F030E94F91D6B017C0120E030E048ECEC
:102D900052EC0E94651C87FD11C020E030E048EC39
:102DA00052E4C701B6010E94A61F18166CF4C12C8C
:102DB000D12C48ECE42E42E4F42E06C0C12CD12CD8
:102DC00058ECE52E52ECF52EC0926C03D0926D03B8
:102DD000E0926E03F0926F0320E030E048EC52E4A2
:102DE000609164037091650380916603909167031D
:102DF0000E94D71E6D837E838F8398872091600306
:102E0000309161034091620350916303C501B401A5
:102E10000E94F81D9B01AC016D817E818F81988598
:102E20000E94CB1CA30192010E94D71E2B013C01E2
:102E30008092600390926103A0926203B092630358
:102E4000A701960169817A818B819C810E94F91D7D
:102E5000A30192010E94F91D6B017C0120E030E08A
:102E6000A9010E94F91D20E030E040E651E40E94F3
:102E7000F91D4B015C0120E030E040E651E4C70160
:102E8000B6010E94F91D26E636E646E65FE30E949B
:102E9000CB1C6B017C0120E030E0A901C501B4012D
:102EA0000E94A61F87FD2DC020E030E048EC52E4D0
:102EB000C501B4010E94A61F181634F4812C912C70
:102EC00038ECA32E32E4B32E20E030E048E454E4A2
:102ED000C501B4010E94CB1C20E030E048EC52E474
:102EE0000E94D71E0E94501F603293E0790710F0B5
:102EF0006FE173E070938900609388005D9A5E983B
:102F000030C0B7FAB094B7F8B09420E030E048ECA5
:102F100052E4C501B4010E94A61F181634F4812C96
:102F2000912C28ECA22E22E4B22E20E030E048E4DE
:102F300054E4C501B4010E94CB1C20E030E048EC11
:102F400052E40E94D71E0E94501F6032A3E07A070D
:102F500010F06FE173E070938900609388005D98D2
:102F60005E9A20E030E0A901C701B6010E94A61FC9
:102F700087FD2DC020E030E048EC52E4C701B601E7
:102F80000E94A61F181634F4C12CD12C98ECE92EFF
:102F900092E4F92E20E030E048E454E4C701B601A1
:102FA0000E94CB1C20E030E048EC52E40E94D71E87
:102FB0000E94501F6032B3E07B0710F06FE173E0B6
:102FC00070938B0060938A005F98289A30C0F7FA5C
:102FD000F094F7F8F09420E030E048EC52E4C701B8
:102FE000B6010E94A61F181634F4C12CD12C88EC0F
:102FF000E82E82E4F82E20E030E048E454E4C701F3
:10300000B6010E94CB1C20E030E048EC52E40E9464
:10301000D71E0E94501F6032E3E07E0710F06FE180
:1030200073E070938B0060938A005F9A2898809178
:103030008F0390919003A0919103B091920380939C
:103040008B0390938C03A0938D03B0938E03809198
:10305000A2039091A303A091A403B091A503809330
:103060007A0390937B03A0937C03B0937D038091BC
:10307000870390918803A0918903B0918A0380937C
:10308000820390938303A0938403B093850380917C
:103090009D0390919E03A0919F03B091A003809304
:1030A0007E0390937F03A0938003B0938103F0E1AC
:1030B000F09379032FEF2093860380917803882380
:1030C00031F10E94940400917403109175032091D2
:1030D000760330917703DC01CB01801B910BA20BAF
:1030E000B30BC397A105B10590F04EE050E069E73E
:1030F00073E08FE795E00E940B0B0E9494046093AD
:10310000740370937503809376039093770330E490
:1031100030937C0080917A00806480937A00809163
:103120007A0086FDFCCF609178008091790070E094
:10313000782B072E000C880B990B0E946C1C2FE734
:103140003AE64CE95FE30E94CB1C20E030E04AEA1B
:1031500052E40E94F91D0E94491F709398036093E6
:103160009703072E000C880B990B0E946C1C4B01D7
:103170005C010091A5051091A6050115110509F442
:103180008BC08091A005780194E0899FE00CF11C30
:103190001124D7012D913D914D915C916091A10534
:1031A0007091A2058091A3059091A4050E94F81D3D
:1031B0006093A1057093A2058093A3059093A40545
:1031C000F70180829182A282B382F090A005F8017B
:1031D00024E0F29EE00DF11D112420813181428115
:1031E00053816091A1057091A2058091A3059091F2
:1031F000A4050E94F91D6093A1057093A205809318
:10320000A3059093A40581E08F0D8093A005009104
:103210009E05801302C01092A00510919F05111108
:1032200009C08092AB059092AC05A092AD05B0921A
:10323000AE050EC02091A7053091A8054091A905C3
:103240005091AA05C501B4010E94651C87FF09C001
:103250008092A7059092A805A092A905B092AA0510
:1032600016C02091AB053091AC054091AD05509151
:10327000AE05C501B4010E94A61F181644F4809241
:10328000AB059092AC05A092AD05B092AE051017BB
:1032900018F41F5F10939F05C0909303D090940380
:1032A000E0909503F09096030E949404C616D7060A
:1032B000E806F906D0F40E94E70943E050E00E94D6
:1032C000AA098091930390919403A0919503B091E2
:1032D000960388579C4EAF4FBF4F809393039093B4
:1032E0009403A0939503B09396030E94E7096B01A2
:1032F0007C0120E030E443E854E40E94651C87FF31
:103300000DC020E030E048E454E4C701B6010E945B
:10331000A61F18161CF431E03093A603C090A20338
:10332000D090A303E090A403F090A50320E030E048
:103330004CE052E4C701B6010E94A61F181674F0B3
:1033400020E030E04CE052ECC701B6010E94651C61
:1033500087FD04C08091A10381111EC01092A103BA
:103360008091000190910101A0910201B0910301AF
:1033700080939D0390939E03A0939F03B093A0031B
:1033800030928900209288005D9A5E9A30928B007C
:1033900020928A005F9A289AC090A203D090A3033B
:1033A000E090A403F090A50320E030E040EA50EC68
:1033B000C701B6010E94A61F1816BCF420E030E039
:1033C00040EA50E4C701B6010E94651C87FF0DC0AA
:1033D0008091A103811109C062ED72E08EE794E053
:1033E0000E94380D81E08093A103C0909903D09092
:1033F0009A03E0909B03F0909C030E9435046C15A7
:103400007D058E059F0588F390EAC90E9FE0D91EC1
:10341000E11CF11CC0929903D0929A03E0929B03A5
:10342000F0929C030E948601F6C886E391E0909397
:10343000800580937F058FE795E00E94310780919A
:10344000A5059091A605009711F00C94F920089518
:103450000F931F93CF93DF931092810410928004F7
:1034600088EE93E0A0E0B0E0809382049093830420
:10347000A0938404B093850422E131E030937F046B
:1034800020937E0425EC30E030938B0420938A0453
:1034900024EC30E030938D0420938C0420EC30E059
:1034A00030938F0420938E0421EC30E0309391040C
:1034B0002093900422EC30E0309393042093920404
:1034C00026EC30E0309395042093940410929704F6
:1034D000109298041092990410929A041092210567
:1034E00010922205109223051092240510922505B2
:1034F0001092260510922705109228051092290592
:1035000010922A0510922B0510922C0510922D0571
:1035100010922E0510922F0510923005109266051C
:10352000109265058093670590936805A0936905DF
:10353000B0936A0584E291E09093640580936305FB
:1035400061E085E00E94F90360E085E00E94C90324
:1035500061E086E00E94F90360E086E00E94C90312
:1035600061E087E00E94F90360E087E00E94C90300
:1035700061E088E00E94F90360E088E00E94C903EE
:103580000FE612E123E83AE30093D7051093D8053C
:103590002093D9053093DA0546EA5BE964E47BE3DE
:1035A0004093DB055093DC056093DD057093DE05E9
:1035B0008FE892ECA5EFBCE38093DF059093E005E4
:1035C000A093E105B093E2051092E3051092E405A3
:1035D0001092E5051092E6051092E7051092E805B5
:1035E0001092E9051092EA051092EF051092F0058D
:1035F0001092F1051092F2051092F3051092F40565
:103600001092F5051092F6051092F7051092F80544
:103610001092F9051092FA051092FB051092FC0524
:103620001092FD051092FE050093AF051093B005B2
:103630002093B1053093B2054093B3055093B40580
:103640006093B5057093B6058093B7059093B80560
:10365000A093B905B093BA051092BB051092BC05B2
:103660001092BD051092BE051092BF051092C005C4
:103670001092C1051092C2051092C7051092C8059C
:103680001092C9051092CA051092CB051092CC0574
:103690001092CD051092CE051092CF051092D00554
:1036A0001092D1051092D2051092D3051092D40534
:1036B0001092D5051092D60582E380939E0588EC82
:1036C00090E00E9464209093A6058093A505009742
:1036D00011F410929E0510929F051092A005109271
:1036E000A1051092A2051092A3051092A40540E036
:1036F00050E060EC7FE74093A7055093A8056093E6
:10370000A9057093AA054093AB055093AC0560934F
:10371000AD057093AE0520919E05FC0180E08217F7
:1037200031F011921192119211928F5FF8CF109295
:1037300082051092810588EE93E0A0E0B0E08093CE
:10374000830590938405A0938505B093860586E351
:1037500091E09093800580937F05109296051092DA
:103760009505109298051092970510929A0510925F
:10377000990510929C0510929B0560919D056E7FA6
:103780006D7F60939D056695617081E068278CE090
:103790000E94C90361E08CE00E94F903E8EEF0E0CA
:1037A000E491E0938F05E4EDF0E0E491F0E0EE0FBA
:1037B000FF1FEC54FF4F8591949190939105809356
:1037C000900560E08DE00E94F90380919D0581FDE8
:1037D00004C061E08DE00E94C9038DE080938B05F9
:1037E000E9EEF0E0E491E0938C05E5EDF0E0E491A2
:1037F000F0E0EE0FFF1FE254FF4F859194919093FC
:103800008E0580938D0562E083E00E94F90362E0FB
:1038100084E00E94F903EBECF0E0E491F0E0EE0FBD
:10382000FF1FE254FF4FA591B491B0937405A0938C
:103830007305EFEDF0E0849180937705ECECF0E018
:10384000E491F0E0EE0FFF1FE254FF4FC591D491D9
:10385000D0937605C0937505E0EEF0E0E491E09337
:10386000780510927A0510927B0510927C051092D3
:103870007D05EBE3FFE13197F1F7EC91E82381E07F
:1038800009F480E0288190917805922309F0826004
:103890008093790583E795E0909372058093710595
:1038A0008AE393E090930701809306018091690079
:1038B000837F846080936900E99A81E080937E052C
:1038C000DF91CF911F910F9108950E94A71C08F4DA
:1038D00081E00895E89409C097FB3EF490958095A7
:1038E000709561957F4F8F4F9F4F9923A9F0F92FC6
:1038F00096E9BB279395F695879577956795B79544
:10390000F111F8CFFAF4BB0F11F460FF1BC06F5F29
:103910007F4F8F4F9F4F16C0882311F096E911C03B
:10392000772321F09EE8872F762F05C0662371F05C
:1039300096E8862F70E060E02AF09A95660F771F70
:10394000881FDAF7880F9695879597F90895990F4C
:103950000008550FAA0BE0E8FEEF16161706E80759
:10396000F907C0F012161306E407F50798F0621B7A
:10397000730B840B950B39F40A2661F0232B242B4F
:10398000252B21F408950A2609F4A140A6958FEF6E
:10399000811D811D08950E94DE1C0C944F1D0E9404
:1039A000411D38F00E94481D20F0952311F00C9421
:1039B000381D0C943E1D11240C94831D0E94601D23
:1039C00070F3959FC1F3950F50E0551F629FF00172
:1039D000729FBB27F00DB11D639FAA27F00DB11D8B
:1039E000AA1F649F6627B00DA11D661F829F222714
:1039F000B00DA11D621F739FB00DA11D621F839F9B
:103A0000A00D611D221F749F3327A00D611D231F70
:103A1000849F600D211D822F762F6A2F11249F57BE
:103A200050409AF0F1F088234AF0EE0FFF1FBB1FC1
:103A3000661F771F881F91505040A9F79E3F510580
:103A400080F00C94381D0C94831D5F3FE4F3983E86
:103A5000D4F3869577956795B795F795E7959F5F2A
:103A6000C1F7FE2B880F911D9695879597F90895BC
:103A700097F99F6780E870E060E008959FEF80EC21
:103A8000089500240A9416161706180609060895C4
:103A900000240A9412161306140605060895092E2A
:103AA0000394000C11F4882352F0BB0F40F4BF2B99
:103AB00011F460FF04C06F5F7F4F8F4F9F4F0895D9
:103AC00057FD9058440F551F59F05F3F71F04795CF
:103AD000880F97FB991F61F09F3F79F087950895B4
:103AE000121613061406551FF2CF4695F1DF08C0D3
:103AF000161617061806991FF1CF869571056105F0
:103B000008940895E894BB2766277727CB0197F997
:103B10000895F999FECF92BD81BDF89A992780B595
:103B20000895262FF999FECF1FBA92BD81BD20BD01
:103B30000FB6F894FA9AF99A0FBE01960895A1E289
:103B40001A2EAA1BBB1BFD010DC0AA1FBB1FEE1F17
:103B5000FF1FA217B307E407F50720F0A21BB30B62
:103B6000E40BF50B661F771F881F991F1A9469F7DE
:103B700060957095809590959B01AC01BD01CF013A
:103B800008952F923F924F925F926F927F928F9201
:103B90009F92AF92BF92CF92DF92EF92FF920F93DC
:103BA0001F93CF93DF93CDB7DEB7CA1BDB0B0FB6E6
:103BB000F894DEBF0FBECDBF09942A8839884888A3
:103BC0005F846E847D848C849B84AA84B984C88439
:103BD000DF80EE80FD800C811B81AA81B981CE0F30
:103BE000D11D0FB6F894DEBF0FBECDBFED01089515
:103BF0005058BB27AA270E94101E0C944F1D0E94EC
:103C0000411D38F00E94481D20F039F49F3F19F4FF
:103C100026F40C943E1D0EF4E095E7FB0C94381D41
:103C2000E92F0E94601D58F3BA17620773078407D3
:103C3000950720F079F4A6F50C94821D0EF4E0951A
:103C40000B2EBA2FA02D0B01B90190010C01CA0156
:103C5000A0011124FF27591B99F0593F50F4503E01
:103C600068F11A16F040A22F232F342F4427585FF3
:103C7000F3CF469537952795A795F0405395C9F70B
:103C80007EF41F16BA0B620B730B840BBAF09150C3
:103C9000A1F0FF0FBB1F661F771F881FC2F70EC062
:103CA000BA0F621F731F841F48F487957795679535
:103CB000B795F7959E3F08F0B0CF9395880F08F021
:103CC0009927EE0F9795879508950E94411D60F002
:103CD00080E891E009F49EEF0E94481D28F040E83A
:103CE00051E071F45EEF0CC00C943E1D0C94821DEB
:103CF000E92FE0780E94601D40F3092E052AB1F3F8
:103D0000261737074807590738F00E2E07F8E02521
:103D100069F0E025E0640AC0EF6307F8009407FA51
:103D2000DB01B9019D01DC01CA01AD01EF930E94E5
:103D3000EE1E0E944F1D0E94A81E5F91552339F070
:103D40002BED3FE049E450FD49EC0C94F91D08953A
:103D5000DF93DD27B92FBF7740E85FE3161617061C
:103D600048075B0718F4D92F0E94AB1F9F938F93CE
:103D70007F936F930E94F91FE8E6F0E00E947F1F97
:103D80000E944F1D2F913F914F915F910E94DE1C29
:103D9000DD2351F09058A2EA2AED3FE049EC5FE3C1
:103DA000D0785D270E94101EDF910C944F1D0E9459
:103DB000EB1E0C944F1D0E94481D58F00E94411D9F
:103DC00040F029F45F3F29F00C94381D51110C94F8
:103DD000831D0C943E1D0E94601D68F39923B1F36E
:103DE000552391F3951B550BBB27AA276217730721
:103DF000840738F09F5F5F4F220F331F441FAA1FB5
:103E0000A9F335D00E2E3AF0E0E832D09150504070
:103E1000E695001CCAF72BD0FE2F29D0660F771F1E
:103E2000881FBB1F261737074807AB07B0E809F004
:103E3000BB0B802DBF01FF2793585F4F3AF09E3F89
:103E4000510578F00C94381D0C94831D5F3FE4F30A
:103E5000983ED4F3869577956795B795F7959F5FCC
:103E6000C9F7880F911D9695879597F90895E1E018
:103E7000660F771F881FBB1F621773078407BA0777
:103E800020F0621B730B840BBA0BEE1F88F7E095D2
:103E900008950E94501F6894B1110C94831D0895D9
:103EA0000E94681D88F09F5798F0B92F9927B75145
:103EB000B0F0E1F0660F771F881F991F1AF0BA95CE
:103EC000C9F714C0B13091F00E94821DB1E008958D
:103ED0000C94821D672F782F8827B85F39F0B93F7F
:103EE000CCF3869577956795B395D9F73EF4909581
:103EF0008095709561957F4F8F4F9F4F0895DF9309
:103F0000CF931F930F93FF92EF92DF927B018C016F
:103F1000689406C0DA2EEF010E94DE1CFE01E894D0
:103F2000A5912591359145915591A6F3EF010E94F8
:103F3000101EFE019701A801DA9469F7DF90EF9057
:103F4000FF900F911F91CF91DF9108950E94A71CC0
:103F500008F48FEF08959B01AC0160E070E080E809
:103F60009FE30C94D71E19F416F40C943E1D0C9488
:103F700002200E94681DB8F39923C9F3B6F39F5736
:103F8000550B87FF0E9410200024A0E640EA900114
:103F900080585695979528F4805C660F771F881F88
:103FA00020F026173707480730F4621B730B840B89
:103FB000202931294A2BA6951794079420253125CD
:103FC0004A2758F7660F771F881F20F026173707F4
:103FD000480730F4620B730B840B200D311D411D1B
:103FE000A09581F7B901842F9158880F96958795F0
:103FF00008959B01AC010C94CB1C0E94A71C880B5C
:10400000990B08959F3F31F0915020F48795779553
:104010006795B795880F911D9695879597F908959F
:1040200091505040660F771F881FD2F7089597FB75
:10403000072E16F4009407D077FD09D00E944A207D
:1040400007FC05D03EF4909581959F4F089570959B
:1040500061957F4F0895052E97FB1EF400940E94F2
:10406000422057FD07D00E949F1D07FC03D04EF44D
:104070000C94422050954095309521953F4F4F4FDD
:104080005F4F089590958095709561957F4F8F4F04
:104090009F4F0895AA1BBB1B51E107C0AA1FBB1F5E
:1040A000A617B70710F0A61BB70B881F991F5A95C4
:1040B000A9F780959095BC01CD010895EE0FFF1FE3
:1040C0000590F491E02D0994CF93DF938230910510
:1040D00010F482E090E0E0913D06F0913E0620E091
:1040E00030E0C0E0D0E0309711F1408151814817B5
:1040F0005907C0F04817590761F4828193812097CE
:1041000019F09B838A832BC090933E0680933D06D3
:1041100026C02115310519F04217530718F49A01EA
:10412000BE01DF01EF010280F381E02DDCCF21151C
:10413000310509F1281B390B2430310590F4129612
:104140008D919C9113976115710521F0FB0193836B
:10415000828304C090933E0680933D06FD01329613
:1041600044C0FD01E20FF31F819391932250310966
:104170002D933C933AC020913B0630913C06232B73
:1041800041F420910A0130910B0130933C062093B9
:104190003B0620910801309109012115310541F4B8
:1041A0002DB73EB740910C0150910D01241B350BEA
:1041B000E0913B06F0913C06E217F307A0F42E1BBA
:1041C0003F0B2817390778F0AC014E5F5F4F24177B
:1041D000350748F04E0F5F1F50933C0640933B0657
:1041E0008193919302C0E0E0F0E0CF01DF91CF91A5
:1041F00008950F931F93CF93DF93009709F48CC01A
:10420000FC0132971382128200913D0610913E0606
:104210000115110581F420813181820F931F2091B6
:104220003B0630913C062817390779F5F0933C0698
:10423000E0933B0671C0D80140E050E0AE17BF07E5
:1042400050F412962D913C911397AD012115310533
:1042500009F1D901F3CF9D01DA0133832283608113
:104260007181860F971F8217930769F4EC012881EB
:104270003981260F371F2E5F3F4F318320838A817C
:104280009B8193838283452B29F4F0933E06E09330
:104290003D0642C01396FC93EE931297ED014991AF
:1042A00059919E01240F351FE217F30771F48081A5
:1042B0009181840F951F029611969C938E93828113
:1042C000938113969C938E931297E0E0F0E0D801CF
:1042D00012968D919C911397009719F0F8018C011B
:1042E000F6CF8D919C9198012E5F3F4F820F931FC7
:1042F00020913B0630913C062817390769F4309726
:1043000029F410923E0610923D0602C013821282DA
:1043100010933C0600933B06DF91CF911F910F91C4
:104320000895A0E0B0E0E7E9F1E20C94C51DEC01CE
:10433000009721F4CB010E946420B8C0FC01E60F75
:10434000F71F9C0122503109E217F30708F4ACC0B3
:10435000D9010D911C91119706171707B0F0053080
:10436000110508F49FC0C80104978617970708F441
:1043700099C002501109061B170B019311936D93FD
:104380007C93CF010E94F9208DC05B01A01AB10A75
:104390004C01800E911EA0913D06B0913E0640E07A
:1043A00050E0E12CF12C109709F44AC0A815B9058A
:1043B000D1F56D907C901197630182E0C80ED11CFD
:1043C000CA14DB0480F1A3014A195B096A0182E087
:1043D000C80ED11C1296BC9012971396AC91B5E002
:1043E000CB16D10440F0B282A38351834083D9011C
:1043F0006D937C930AC00E5F1F4FC301800F911F06
:10440000F90191838083EB2DFA2FE114F10431F04F
:10441000D7011396FC93EE93129744C0F0933E0697
:10442000E0933D063FC08D919C9111974817590725
:1044300008F4AC017D0112960D90BC91A02DB3CF74
:1044400080913B0690913C0688159905E1F446174A
:104450005707C8F48091080190910901009741F431
:104460008DB79EB740910C0150910D01841B950BA7
:10447000E817F907C8F4F0933C06E0933B06F9010E
:10448000718360830FC0CB010E9464207C01009780
:1044900059F0A801BE010E946022CE010E94F920BD
:1044A000C70104C0CE0102C080E090E0CDB7DEB706
:1044B000EEE00C94E11D81E090E0F8940C94702201
:1044C000FB01DC0102C001900D9241505040D8F731
:1044D0000895FB01DC0101900D920020E1F70895A1
:1044E00010E0CAE8D0E004C0FE010E945E202196E0
:0A44F000CB38D107C9F7F894FFCFCD
:1044FA00000000409001900100003F06800000008B
:10450A0000001D010B0BB5006401E600C400D800D1
:10451A0000000000C5029502F50269028D027902C7
:10452A006A0200000000AA010B0BF502A901FE01B4
:10453A0016029101564D4450565F317C315F564DFB
:10454A004450560D0A005374617274696E6720757F
:10455A00702070726F6A65637420526F626F742084
:10456A00563100436F6E66696775726174696F6E62
:10457A0020005365742064656661756C74207661E9
:10458A006C75657320666F7220504944200041544F
:10459A002B424155443D3400526164696F20627573
:1045AA0066666572004572726F7220696E20736565
:1045BA007474696E6720726164696F2073706565CF
:1045CA00640041542B494E46004275666665722066
:1045DA0073697A652066726F6D2041542B494E4685
:1045EA002000496620796F752072656164207468BD
:1045FA0069732C207468656E20526164696F206942
:10460A007320636F6E66696775726573206F6B00DE
:10461A005374617274696E67204779726F2075707E
:10462A00005468697320636F756C64206265206149
:10463A00204D50552D363035300053656E64205765
:10464A00686F20616D204920726571756573742EDB
:10465A002E2E0057686F20416D20492072657370B5
:10466A006F6E6365206973206F6B3A20307800475C
:10467A0079746F207365747570206F6B0043616C79
:10468A0069627261746520746865204779726F0087
:10469A0043616C6962726174696F6E20446F6E6502
:1046AA00005465737420646174612066726F6D20B2
:1046BA00504300204B503D00204B493D00204B44C5
:1046CA003D006F6B20746F20676F006E616E00692A
:0846DA006E66006F76660000B9
:107E0000112484B714BE81FFF0D085E080938100F7
:107E100082E08093C00088E18093C10086E0809377
:107E2000C20080E18093C4008EE0C9D0259A86E02C
:107E300020E33CEF91E0309385002093840096BBD3
:107E4000B09BFECF1D9AA8958150A9F7CC24DD24C4
:107E500088248394B5E0AB2EA1E19A2EF3E0BF2EE7
:107E6000A2D0813461F49FD0082FAFD0023811F036
:107E7000013811F484E001C083E08DD089C08234E0
:107E800011F484E103C0853419F485E0A6D080C0E4
:107E9000853579F488D0E82EFF2485D0082F10E0AE
:107EA000102F00270E291F29000F111F8ED06801E7
:107EB0006FC0863521F484E090D080E0DECF843638
:107EC00009F040C070D06FD0082F6DD080E0C81688
:107ED00080E7D80618F4F601B7BEE895C0E0D1E017
:107EE00062D089930C17E1F7F0E0CF16F0E7DF06D8
:107EF00018F0F601B7BEE89568D007B600FCFDCFD4
:107F0000A601A0E0B1E02C9130E011968C91119780
:107F100090E0982F8827822B932B1296FA010C0160
:107F200087BEE89511244E5F5F4FF1E0A038BF0790
:107F300051F7F601A7BEE89507B600FCFDCF97BE46
:107F4000E89526C08437B1F42ED02DD0F82E2BD052
:107F50003CD0F601EF2C8F010F5F1F4F84911BD097
:107F6000EA94F801C1F70894C11CD11CFA94CF0C13
:107F7000D11C0EC0853739F428D08EE10CD085E9AC
:107F80000AD08FE07ACF813511F488E018D01DD067
:107F900080E101D065CF982F8091C00085FFFCCF94
:107FA0009093C60008958091C00087FFFCCF809118
:107FB000C00084FD01C0A8958091C6000895E0E648
:107FC000F0E098E1908380830895EDDF803219F02E
:107FD00088E0F5DFFFCF84E1DECF1F93182FE3DFCA
:107FE0001150E9F7F2DF1F91089580E0E8DFEE27F6
:047FF000FF270994CA
:027FFE00040479
:0400000300007E007B
:00000001FF