:100000000C94BB000C94E3000C94E3000C94E3000C
:100010000C94E3000C94E3000C94E3000C94E300D4
:100020000C94E3000C94E3000C94E3000C94E300C4
:100030000C94E3000C94E3000C94E3000C94E300B4
:100040000C94FF030C94E3000C94CD030C94A703D1
:100050000C94E3000C94E3000C94E3000C94E30094
:100060000C9449040C94E300036EDB363D9A999995
:10007000993DABAAAA2A3E000000803F072C7AA532
:10008000BA6CC590DA3B9365FC8BBC53F810FD3C11
:100090005692834DBD879D3AB63DCBC9BF5BBE73BB
:1000A000DA0FC93F05A84CCDB2D44EB93836A902F3
:1000B0000C50B9918688083CA6AAAA2ABE00000066
:1000C000803F00000000240027002A00493243201E
:1000D000636C6F636B207370656564206973206E59
:1000E0006F742073657420746F203430306B487ADD
:1000F0002E20284552524F522038290052656769F8
:10010000737465722030783142206973207365748E
:1001100020746F3A00526567697374657220307895
:1001200036422069732073657420746F3A000000B2
:100130000000250028002B00040404040404040427
:100140000202020202020303030303030102040882
:100150001020408001020408102001020408102031
:100160000000000800020100000304070000000076
:1001700000000000BF0C11241FBECFEFD8E0DEBF8F
:10018000CDBF23E0A8E8B1E001C01D92A439B207B9
:10019000E1F711E0A0E0B1E0EAEBF1E202C0059086
:1001A0000D92A838B107D9F710E0CBEBD0E004C02E
:1001B0002197FE010E94D010CA3BD107C9F70E94C7
:1001C0003C070C94DB100C9400008091810290E0BD
:1001D00020918202821B91090895FC01538D448D68
:1001E000252F30E0842F90E0821B930B541710F0E2
:1001F000CF96089501970895FC01918D828D9817EF
:1002000061F0828DDF01A80FB11D5D968C91928DFA
:100210009F5F9F73928F90E008958FEF9FEF0895F7
:10022000FC01918D828D981731F0828DE80FF11DC0
:10023000858D90E008958FEF9FEF0895FC01918DDB
:10024000228D892F90E0805C9F4F821B91098F73D4
:100250009927089583EA92E00E941E0121E0892BEC
:1002600009F420E0822F0895FC01848DDF01A80F9E
:10027000B11DA35ABF4F2C91848D90E001968F73CE
:100280009927848FA689B7892C93A089B1898C91ED
:1002900080648C93938D848D981306C00288F389B3
:1002A000E02D80818F7D80830895EF92FF920F93E0
:1002B0001F93CF93DF93EC0181E0888F9B8D8C8D12
:1002C000981305C0E889F989808185FD24C0F62E40
:1002D0000B8D10E00F5F1F4F0F731127E02E8C8DD9
:1002E000E8120CC00FB607FCFACFE889F9898081C3
:1002F00085FFF5CFCE010E943401F1CF8B8DFE0139
:10030000E80FF11DE35AFF4FF0820B8FEA89FB895A
:100310008081806207C0EE89FF896083E889F9895E
:1003200080818064808381E090E0DF91CF911F9194
:100330000F91FF90EF900895CF93DF93EC01888D9C
:100340008823C9F0EA89FB89808185FD05C0A889D9
:10035000B9898C9186FD0FC00FB607FCF5CF80815F
:1003600085FFF2CFA889B9898C9185FFEDCFCE01A9
:100370000E943401E7CFDF91CF91089580E090E0B3
:10038000892B29F00E942A0181110C940000089504
:100390003FB7F8948091D6019091D701A091D801F0
:1003A000B091D90126B5A89B05C02F3F19F0019641
:1003B000A11DB11D3FBFBA2FA92F982F8827820FEB
:1003C000911DA11DB11DBC01CD0142E0660F771F3B
:1003D000881F991F4A95D1F708958F929F92AF92E7
:1003E000BF92CF92DF92EF92FF926B017C010E944D
:1003F000C8014B015C01C114D104E104F104F1F026
:100400000E94C801DC01CB0188199909AA09BB091E
:10041000883E9340A105B10570F321E0C21AD108CE
:10042000E108F10888EE880E83E0981EA11CB11C3B
:10043000C114D104E104F10419F7DDCFFF90EF906E
:10044000DF90CF90BF90AF909F908F9008952FB77F
:10045000F8946091D2017091D3018091D401909170
:10046000D5012FBF089585ED8093BC008091BC001D
:1004700084FDFCCF1092800208954091AC01262F9C
:1004800030E0240F311D21323105DCF4209180024F
:100490002430C9F4FC0180E090E0861758F43091D4
:1004A000AC012191DC01A657BE4FA30FB11D2C93C7
:1004B0000196F3CF8091AC01680F6093AC0180E0AE
:1004C000089581E0089582E008950895E091820200
:1004D00080918102E81730F4F0E0ED57FD4F808104
:1004E00090E008958FEF9FEF0895909182028091A0
:1004F0008102981750F4E92FF0E0ED57FD4F20816D
:1005000030E09F5F9093820202C02FEF3FEFC9015E
:100510000895CF92DF92EF92FF920F931F93CF93A4
:10052000DF937C01262F972F8A0180913602882342
:1005300091F0C62FD72F6E01C40ED51ECC15DD0548
:1005400071F06991D701ED91FC910190F081E02D5E
:10055000C7010995F3CF642F822F0E943D02C80185
:10056000DF91CF911F910F91FF90EF90DF90CF908F
:100570000895CF93DF931F92CDB7DEB769832091A3
:1005800036022223D1F020915902203240F021E09E
:1005900030E0FC013383228380E090E015C080913D
:1005A0003702E82FF0E0E85CFD4F998190838F5F80
:1005B000809337028093590205C061E0CE01019615
:1005C0000E943D0281E090E00F90DF91CF9108956D
:1005D000089580E090E00895CF9381E08093360203
:1005E00088E68093580210923702109259028BE3EA
:1005F00090E00E94EB050E943B066EE070E088E60A
:1006000090E00E94F0058091810290E020918202AA
:10061000821B91098E309105ECF388E893E00E94EB
:100620007502C82F88E893E00E94750220E030E050
:100630003C2F822B932B092E000CAA0BBB0B809313
:100640000C0290930D02A0930E02B0930F0288E863
:1006500093E00E947502C82F88E893E00E9475021B
:1006600020E030E03C2F822B932B092E000CAA0BAC
:10067000BB0B8093080290930902A0930A02B093E7
:100680000B0288E893E00E947502C82F88E893E087
:100690000E94750220E030E03C2F822B932B092E24
:1006A000000CAA0BBB0B8093040290930502A0934D
:1006B0000602B093070288E893E00E947502C82FF3
:1006C00088E893E00E94750220E030E03C2F822B06
:1006D000932B909389018093880188E893E00E948E
:1006E0007502C82F88E893E00E94750220E030E090
:1006F0003C2F822B932B9093F7018093F60188E88F
:1007000093E00E947502C82F88E893E00E9475026A
:1007100020E030E03C2F822B932B9093F1018093CB
:10072000F00188E893E00E947502C82F88E893E002
:100730000E94750220E030E03C2F822B932B909397
:10074000EB018093EA01CF9108950E94D6101F9289
:100750000F920FB60F9211242F933F934F935F93F5
:100760006F937F938F939F93AF93BF93EF93FF9379
:1007700083EA92E00E943401FF91EF91BF91AF9123
:100780009F918F917F916F915F914F913F912F91A9
:100790000F900FBE0F901F9018951F920F920FB6DB
:1007A0000F9211242F938F939F93EF93FF93E091D8
:1007B000B302F091B4028081E091B902F091BA02E3
:1007C00082FD12C090818091BC028F5F8F73209157
:1007D000BD02821751F0E091BC02F0E0ED55FD4FF3
:1007E000958F8093BC0201C08081FF91EF919F9112
:1007F0008F912F910F900FBE0F901F9018951F9201
:100800000F920FB60F9211242F933F938F939F93C4
:10081000AF93BF938091D2019091D301A091D40165
:10082000B091D5013091D10123E0230F2D3720F471
:100830000196A11DB11D05C026E8230F0296A11D3A
:10084000B11D2093D1018093D2019093D301A09345
:10085000D401B093D5018091D6019091D701A09198
:10086000D801B091D9010196A11DB11D8093D60187
:100870009093D701A093D801B093D901BF91AF91C4
:100880009F918F913F912F910F900FBE0F901F90CE
:1008900018951F920F920FB60F9211242F933F932A
:1008A0004F935F936F937F938F939F93AF93BF9378
:1008B000EF93FF938091B900887F803609F49CC044
:1008C00068F5883209F45BC090F4803109F454C0B3
:1008D00038F4882309F4F6C0883009F44DC0F6C016
:1008E000883109F44CC0803209F45DC0EFC0803417
:1008F00009F468C048F4803309F455C0883309F01E
:10090000E5C080937E02D8C0803509F44FC0883599
:1009100009F45DC0883409F0D9C0D6C0883909F41B
:10092000C7C0A8F4883709F467C038F4883609F4DA
:1009300063C0803709F460C0C9C0883809F4B8C002
:10094000803909F45FC0803809F0C0C05BC0803BCB
:1009500009F486C038F4803A09F466C0883A09F48C
:100960007FC0B4C0803C09F4A7C0883C09F4A4C08F
:10097000883B09F48AC0AAC080917B0210C0909184
:100980007D0280917C02981770F5E0917D0281E0F4
:100990008E0F80937D02F0E0E65AFD4F80818093B8
:1009A000BB0085EC86C080937E028EC0E0917D0204
:1009B00081E08E0F80937D028091BB00F0E0E65ACB
:1009C000FD4F808390917D0280917C026EC0E0910A
:1009D0007D0281E08E0F80937D028091BB00F0E06C
:1009E000E65AFD4F808380917F0281116DC081E0C6
:1009F00080937A0284EA61C083E08093800210923F
:100A0000D001CFCF8091D001803208F051C0E09169
:100A1000D00181E08E0F8093D0018091BB00F0E087
:100A2000E055FE4F8083BDCF85EC8093BC001092D3
:100A300080028091D001803230F4E091D001F0E06A
:100A4000E055FE4F10826091D00170E0E091AE0160
:100A5000F091AF0180EB91E009951092D00136C082
:100A600084E0809380021092AD011092AC01E0917D
:100A7000AA01F091AB0109958091AC01811105C0EB
:100A800081E08093AC0110928A01E091AD0181E098
:100A90008E0F8093AD01F0E0E657FE4F808180938A
:100AA000BB009091AD018091AC01981708F479CF0B
:100AB00085E88093BC000AC085EC8093BC0010924E
:100AC000800204C010927E020E943302FF91EF91D7
:100AD000BF91AF919F918F917F916F915F914F9156
:100AE0003F912F910F900FBE0F901F901895CF92AE
:100AF000DF92EF92FF920F931F93CF93DF936C01DE
:100B00007A018B01C0E0D0E0CE15DF0589F0D80175
:100B10006D918D01D601ED91FC910190F081E02D58
:100B2000C6010995892B11F47E0102C02196ECCFF4
:100B3000C701DF91CF911F910F91FF90EF90DF9050
:100B4000CF9008950F931F93CF93DF938C01C0E054
:100B5000D0E0F801EC0FFD1F6491662371F0E09185
:100B6000A302F091A4020190F081E02D83EA92E0CB
:100B70000995892B11F02196ECCFCE01DF91CF9111
:100B80001F910F910895E3EAF2E0A089B18982E014
:100B90008C93A485B5851C92A685B78587E68C9332
:100BA000108EA489B58986E08C93A289B3898C9133
:100BB00080618C93A289B3898C9188608C93A2897F
:100BC000B3898C9180688C930288F389E02D8081B1
:100BD0008F7D80830895682F88E893E00C94B90294
:100BE000909180029111FCCF613208F060E291E0B7
:100BF0009093800290937F022FEF20937E021092B9
:100C00007D02260F20937C0290937B0290917B02C1
:100C1000880F892B80937B0280917A02813061F466
:100C200010927A0280917B028093BB008091BC007D
:100C300083FDF8CF85EC01C085EE8093BC008091E8
:100C400080028130E1F380917D02861710F460917B
:100C50007D02AAE5B2E023E832E0F9018E2F821B83
:100C6000861718F48D918193F9CF109282026093C8
:100C70008102862F089520915902909158022132C5
:100C800008F04AC0809180028111FCCF32E030939D
:100C9000800231E030937F023FEF30937E0210926A
:100CA0007D0220937C02A8E3B2E04AE552E0FA011B
:100CB0003E2F341B321718F43D913193F9CF109227
:100CC0007B0220917B02990F922B90937B02909153
:100CD0007A02913061F410927A0290917B029093A3
:100CE000BB009091BC0093FDF8CF95EC01C095EE50
:100CF0009093BC00909180029230E1F390917E023B
:100D00009F3F79F080917E02803241F080917E0297
:100D1000803331F084E005C081E003C082E001C08F
:100D200083E0109237021092590210923602089511
:100D300090E0FC01E05AFE4F2491FC01E45BFE4F81
:100D40003491FC01E85CFE4FE491EE23B1F12223E3
:100D500039F1233091F038F42130A9F0223001F537
:100D600084B58F7D12C0273091F02830A1F0243057
:100D7000B9F4809180008F7D03C0809180008F77CF
:100D8000809380000DC084B58F7784BD09C08091A9
:100D9000B0008F7703C08091B0008F7D8093B0004A
:100DA000F0E0EE0FFF1FE25DFE4FA591B4918FB70B
:100DB000F894EC913E2B3C938FBF0895611571051B
:100DC00079F0FB0101900020E9F73197AF01461B54
:100DD000570BDC01ED91FC910280F381E02D099429
:100DE00080E090E008954F925F926F927F92EF9231
:100DF000FF920F931F93CF93DF93CDB7DEB7A197E9
:100E00000FB6F894DEBF0FBECDBF7C01FA01CB0157
:100E100019A2223008F42AE08E010F5D1F4F422EE6
:100E2000512C612C712CBF01A30192010E943E0E36
:100E3000F901CA01015011096A3014F4605D01C062
:100E4000695CD8016C93232B242B252B61F7B80107
:100E5000C7010E94DE06A1960FB6F894DEBF0FBE52
:100E6000CDBFDF91CF911F910F91FF90EF907F90B9
:100E70006F905F904F900895CF93DF93CDB7DEB71B
:100E80002C970FB6F894DEBF0FBECDBF789484B513
:100E9000826084BD84B5816084BD85B5826085BD76
:100EA00085B5816085BD80916E00816080936E0004
:100EB00010928100809181008260809381008091F6
:100EC00081008160809381008091800081608093A7
:100ED00080008091B10084608093B1008091B00067
:100EE00081608093B00080917A00846080937A0062
:100EF00080917A00826080937A0080917A0081608C
:100F000080937A0080917A00806880937A001092B2
:100F1000C1001092840310928503109286031092F0
:100F200087031092420310924303109244031092DD
:100F300045030E9427026B017C014B015C0128EBF9
:100F4000820E2BE0921EA11CB11C0E9427026C1580
:100F50007D058E059F0528F086169706A806B9061A
:100F6000A0F783EA92E090938303809382030E9428
:100F7000C3050E942702609342037093430380934A
:100F800044039093450364E271E080918203909161
:100F900083030E94DE060E9427026B017C014B0145
:100FA0005C013AE0830E911CA11CB11C0E94270237
:100FB0006C157D058E059F0528F086169706A806F8
:100FC000B906A0F781E0809356030E94C305EDE5C2
:100FD000F1E02491E9E4F1E08491882399F090E034
:100FE000880F991FFC01EE53FF4FA591B491FC01AE
:100FF000E25DFE4F859194918FB7F894EC91E22BCE
:10100000EC938FBF109282021092810210923702ED
:10101000109259021092800211E010937F021092F8
:101020007A0282E10E94980683E10E9498068091EC
:10103000B9008E7F8093B9008091B9008D7F809335
:10104000B90088E48093B80085E48093BC001092D6
:10105000E5016AEF70E080E090E00E94ED0168EE4B
:1010600073E080E090E00E94ED018CE08093B80096
:101070001093DA018091B8008C3009F045C060ED22
:1010800077E080E090E00E94ED0168EE73E080E0A0
:1010900090E00E94ED0181E08093360288E6809323
:1010A0005802109237021092590285E790E00E9490
:1010B000EB050E943B0661E070E088E690E00E944C
:1010C000F0050E9427026B017C0144E6C40ED11C8E
:1010D000E11CF11CC092DC01D092DD01E092DE0146
:1010E000F092DF018091810290E020918202821BC8
:1010F000910918161906ACF00E9427026C157D059F
:101100008E059F0578F30DC08CEC90E00E94A2053F
:1011100063E371E083EA92E00E94DE061093E5014A
:10112000AECF88E893E00E947502182F8093DB0110
:1011300088E690E09093E1018093E001183609F091
:101140005EC101E00093E4019093E3018093E2012A
:1011500068EB7BE080E090E00E94ED0100933602B6
:101160001093580210923702109259028BE690E0C9
:101170000E94EB0580E090E00E94EB050E943B0698
:1011800000933602109358021092370210925902BF
:101190008BE690E00E94EB050E943B0661E070E068
:1011A00088E690E00E94F0058091810290E0209115
:1011B0008202821B910918161906ECF785E191E06D
:1011C0000E94A20588E893E00E947502AC01990F85
:1011D000660B770B22E083EA92E00E94F30663E35A
:1011E00071E083EA92E00E94DE061091E001F09047
:1011F000E10101E000933602109358021092370289
:10120000109259028BE190E00E94EB0588E090E09B
:101210000E94EB050E943B06009336021093580291
:1012200010923702109259028BE190E00E94EB0578
:101230000E943B0661E070E0812F9F2D0E94F00527
:101240008091810290E020918202821B9109181600
:101250001906ECF78CEF90E00E94A20588E893E075
:101260000E947502AC01990F660B770B22E083EAAE
:1012700092E00E94F30663E371E083EA92E00E9449
:10128000DE0681E10E94980668EB7BE080E090E05A
:101290000E94ED0168EE73E080E090E00E94ED01B5
:1012A00066E371E083EA92E00E94DE0663E371E0A8
:1012B00083EA92E00E94DE0604EF11E00E94EC0255
:1012C0004090F6015090F701052C000C6608770855
:1012D0008091F2019091F301A091F401B091F50198
:1012E000480E591E6A1E7B1E4092F2015092F30175
:1012F0006092F4017092F5018090F0019090F101FC
:10130000092C000CAA08BB088091EC019091ED011A
:10131000A091EE01B091EF01880E991EAA1EBB1E8E
:101320008092EC019092ED01A092EE01B092EF015B
:10133000C090EA01D090EB010D2C000CEE08FF08E4
:101340008091E6019091E701A091E801B091E90157
:10135000A7019601280F391F4A1F5B1F29833A8373
:101360004B835C832093E6013093E7014093E801CF
:101370005093E90163E070E080E090E00E94ED01AD
:101380000150110909F09ACF84EFC82EDD24D394BF
:10139000E12CF12CC301B201A70196010E94B1100A
:1013A0002093F2013093F3014093F4015093F5013F
:1013B000C501B401A70196010E94B1102093EC0170
:1013C0003093ED014093EE015093EF0169817A81F2
:1013D0008B819C81A70196010E94B1102093E601A8
:1013E0003093E7014093E8015093E90164EF71E025
:1013F00080E090E00E94ED0110E10FEF00C181E07C
:101400008093E50168E471E083EA92E00E94DE06E1
:1014100063E371E083EA92E00E94DE06FFCF881565
:101420009905AA05BB0504F5C701B6010E94110D77
:101430006B017C01C501B4010E94110D9B01AC013F
:10144000C701B6010E94020F0E94E70E2BE13FE2A6
:1014500045E652E40E94700D6093FC017093FD011B
:101460008093FE019093FF01D301C20177FE07C074
:1014700088279927DC0184199509A609B7098815D9
:101480009905AA05BB0504F5C301B2010E94110D1F
:101490006B017C01C501B4010E94110D9B01AC01DF
:1014A000C701B6010E94020F0E94E70E2BE13FE246
:1014B00045E652EC0E94700D6093F8017093F901BB
:1014C0008093FA019093FB01C090F801D090F9014C
:1014D000E090FA01F090FB0129EC35EE4FE75FE375
:1014E00069817A818B819C810E94700D4B015C0126
:1014F00027E137EB41ED59E36091FC017091FD016B
:101500008091FE019091FF010E94700D9B01AC0142
:10151000C501B4010E947B0E60931C0270931D02F2
:1015200080931E0290931F0229EC35EE4FE75FE394
:1015300069857A858B859C850E94700D4B015C01C5
:1015400027E137EB41ED59E3C701B6010E94700D69
:101550009B01AC01C501B4010E947B0E6B017C01B3
:101560004B015C016093320270933302809334022A
:101570009093350260932502709326028093270290
:101580009093280210922D0210922E0210922F0298
:10159000109230021092290210922A0210922B020D
:1015A00010922C0210932402009331020E94270211
:1015B0006B3071058105910508F025C10E94C801B5
:1015C000C0902002D0902102E0902202F0902302ED
:1015D000DC01CB018C199D09AE09BF09803A9F40FF
:1015E000A105B10558F30E94C801609320027093D1
:1015F000210280932202909323020E94BE010E9446
:10160000EC028090F6019090F7018091F2019091A8
:10161000F301881A990A9092F7018092F60160917D
:10162000F0017091F1018091EC019091ED01681B46
:10163000790B7093F1016093F001A090EA01B090F2
:10164000EB018091E6019091E701A81AB90AB092E6
:10165000EB01A092EA01072E000C880B990B0E9467
:10166000110D6B017C01609314027093150280933D
:10167000160290931702B401990C880B990B0E94E3
:10168000110D2B013C016093180270931902809395
:101690001A0290931B02B501BB0C880B990B0E9498
:1016A000110D4B015C016093100270931102809345
:1016B00012029093130220ED32E240E858E3C70192
:1016C000B6010E94700D2091320230913302409198
:1016D0003402509135020E947B0E6B017C012BE796
:1016E00033E14FE855E3C501B4010E94700D0E943B
:1016F0000A104B015C0120ED32E240E858E3C301DF
:10170000B2010E94700D20911C0230911D02409187
:101710001E0250911F020E947B0E2B013C01A5016D
:101720009401C701B6010E94700D9B01AC01C30179
:10173000B2010E947A0E69837A838B839C83A50110
:1017400094010E94700D9B01AC01C701B6010E947B
:101750007B0E69877A878B879C8740900C0250901C
:101760000D0260900E0270900F02C0900802D0909F
:101770000902E0900A02F0900B028091040290911D
:101780000502A0910602B09107028D839E83AF836C
:10179000B887A3019201C301B2010E942E0E4B0132
:1017A0005C01A7019601C701B6010E942E0E860EAC
:1017B000971EA81EB91E2D813E814F815885CA01F2
:1017C000B9010E942E0E680D791D8A1D9B1D0E9475
:1017D000110D0E9418100E94740F4B015C01609360
:1017E0000002709301028093020290930302D701DA
:1017F000C601F7FE14CE88279927DC018C199D09B4
:10180000AE09BF090CCEA7019601C701B6010E941F
:101810005810882319F06CE771E01AC026013701CF
:10182000E89477F82FEF3FEF4FE75FE7C301B2018E
:101830000E945810811111C02FEF3FEF4FE75FE773
:10184000C301B2010E940A0D18163CF460E871E071
:1018500083EA92E00E94DE068BC02FEF3FEF4FE756
:101860005FE4C701B6010E94051018161CF464E875
:1018700071E0EECF2FEF3FEF4FE75FECC701B6010E
:101880000E940A0D87FDF3CF20E030E0A901C701D7
:10189000B6010E940A0D87FF11C0E091A302F091EA
:1018A000A4020190F081E02D6DE283EA92E00995B7
:1018B00046015701B7FAB094B7F8B0942AE037ED73
:1018C00043EA5BE3C501B4010E947B0E4B015C015E
:1018D0000E947B0F6B017C010E940F0D9B01AC01EC
:1018E000C501B4010E947A0E4B015C012AE0B701E8
:1018F000A60183EA92E00E94F306E091A302F09130
:10190000A4020190F081E02D6EE283EA92E0099555
:1019100020E030E040E251E4C501B4010E94700DC6
:101920004B015C010E947B0F6B01E12CF12C2AE042
:10193000B701A60183EA92E00E94F306C701B6014F
:101940000E940F0D9B01AC01C501B4010E947A0EEB
:1019500020E030E040E251E40E94700D0E947B0FD5
:10196000AB0160E070E02AE083EA92E00E94F306B7
:1019700063E371E083EA92E00E94DE061FCEE3EAB1
:10198000F2E01382128288EE93E0A0E0B0E084835C
:101990009583A683B78324E031E03183208325EC4F
:1019A00030E03587248724EC30E03787268720EC29
:1019B00030E0318B208B21EC30E0338B228B22EC1A
:1019C00030E0358B248B26EC30E0378B268B118E64
:1019D000128E138E148EE0E4F3E0168217821086C6
:1019E0001186128613861486158616861786108A27
:1019F000118A128A138A148A158AE8E8F3E013829E
:101A0000128284839583A683B78386E191E09183D4
:101A1000808308950E944C0D08F481E00895E894B5
:101A200009C097FB3EF490958095709561957F4F26
:101A30008F4F9F4F9923A9F0F92F96E9BB279395D4
:101A4000F695879577956795B795F111F8CFFAF4E4
:101A5000BB0F11F460FF1BC06F5F7F4F8F4F9F4F15
:101A600016C0882311F096E911C0772321F09EE873
:101A7000872F762F05C0662371F096E8862F70E0D9
:101A800060E02AF09A95660F771F881FDAF7880FB3
:101A90009695879597F90895990F0008550FAA0B09
:101AA000E0E8FEEF16161706E807F907C0F0121671
:101AB0001306E407F50798F0621B730B840B950B74
:101AC00039F40A2661F0232B242B252B21F40895C9
:101AD0000A2609F4A140A6958FEF811D811D089566
:101AE0000E94830D0C94F40D0E94E60D38F00E94C4
:101AF000ED0D20F0952311F00C94DD0D0C94E30D09
:101B000011240C94280E0E94050E70F3959FC1F3CA
:101B1000950F50E0551F629FF001729FBB27F00D9B
:101B2000B11D639FAA27F00DB11DAA1F649F6627F0
:101B3000B00DA11D661F829F2227B00DA11D621F3F
:101B4000739FB00DA11D621F839FA00D611D221FF9
:101B5000749F3327A00D611D231F849F600D211DDD
:101B6000822F762F6A2F11249F5750409AF0F1F060
:101B700088234AF0EE0FFF1FBB1F661F771F881FC9
:101B800091505040A9F79E3F510580F00C94DD0D17
:101B90000C94280E5F3FE4F3983ED4F38695779536
:101BA0006795B795F795E7959F5FC1F7FE2B880F6F
:101BB000911D9695879597F9089597F99F6780E805
:101BC00070E060E008959FEF80EC089500240A948F
:101BD0001616170618060906089500240A94121608
:101BE0001306140605060895092E0394000C11F43B
:101BF000882352F0BB0F40F4BF2B11F460FF04C0E8
:101C00006F5F7F4F8F4F9F4F089557FD9058440F40
:101C1000551F59F05F3F71F04795880F97FB991F4B
:101C200061F09F3F79F08795089512161306140608
:101C3000551FF2CF4695F1DF08C016161706180695
:101C4000991FF1CF86957105610508940895E89470
:101C5000BB2766277727CB0197F90895DB018F9380
:101C60009F930E94600EBF91AF91A29F800D911D26
:101C7000A39F900DB29F900D11240895A1E21A2EFA
:101C8000AA1BBB1BFD010DC0AA1FBB1FEE1FFF1F20
:101C9000A217B307E407F50720F0A21BB30BE40B70
:101CA000F50B661F771F881F991F1A9469F76095B7
:101CB0007095809590959B01AC01BD01CF01089571
:101CC0000E946B0EA59F900DB49F900DA49F800D58
:101CD000911D11240895A29FB001B39FC001A39F3D
:101CE000700D811D1124911DB29F700D811D112455
:101CF000911D08955058BB27AA270E94920E0C945C
:101D0000F40D0E94E60D38F00E94ED0D20F039F43C
:101D10009F3F19F426F40C94E30D0EF4E095E7FBD5
:101D20000C94DD0DE92F0E94050E58F3BA176207D7
:101D300073078407950720F079F4A6F50C94270E15
:101D40000EF4E0950B2EBA2FA02D0B01B9019001D6
:101D50000C01CA01A0011124FF27591B99F0593F1A
:101D600050F4503E68F11A16F040A22F232F342F62
:101D70004427585FF3CF469537952795A795F040B0
:101D80005395C9F77EF41F16BA0B620B730B840BC5
:101D9000BAF09150A1F0FF0FBB1F661F771F881F7D
:101DA000C2F70EC0BA0F621F731F841F48F48795D5
:101DB00077956795B795F7959E3F08F0B0CF9395C7
:101DC000880F08F09927EE0F9795879508959F93B0
:101DD0009F77EEE389379E0728F4E8E6F0E00E945B
:101DE000F10F0CC00E94AA0F9058A2EA2AED3FE022
:101DF00049EC5FE30E94920E0E94F40D0F9007FCE5
:101E0000905808950E94160F0C94F40D0E94ED0D49
:101E100058F00E94E60D40F029F45F3F29F00C9441
:101E2000DD0D51110C94280E0C94E30D0E94050E4B
:101E300068F39923B1F3552391F3951B550BBB27F9
:101E4000AA2762177307840738F09F5F5F4F220F3E
:101E5000331F441FAA1FA9F335D00E2E3AF0E0E835
:101E600032D091505040E695001CCAF72BD0FE2F7F
:101E700029D0660F771F881FBB1F26173707480713
:101E8000AB07B0E809F0BB0B802DBF01FF279358CB
:101E90005F4F3AF09E3F510578F00C94DD0D0C94A5
:101EA000280E5F3FE4F3983ED4F3869577956795C7
:101EB000B795F7959F5FC9F7880F911D9695879500
:101EC00097F90895E1E0660F771F881FBB1F62171F
:101ED00073078407BA0720F0621B730B840BBA0BDD
:101EE000EE1F88F7E09508950E947B0F6894B1116A
:101EF0000C94280E08950E940D0E88F09F5798F0BC
:101F0000B92F9927B751B0F0E1F0660F771F881FFE
:101F1000991F1AF0BA95C9F714C0B13091F00E9418
:101F2000270EB1E008950C94270E672F782F88278D
:101F3000B85F39F0B93FCCF3869577956795B3953F
:101F4000D9F73EF490958095709561957F4F8F4FAE
:101F50009F4F0895DF93CF931F930F938B01EC0155
:101F6000ECE7F0E00E94CA0F0E94F40D9801AE0168
:101F70008B01EC0160E070E080E89FE30E947A0E44
:101F80000E9418109801AE010F911F91CF91DF911F
:101F90000C94830DDF93CF931F930F93FF92EF92D7
:101FA000DF927B018C01689406C0DA2EEF010E945B
:101FB000830DFE01E894A5912591359145915591A8
:101FC000A6F3EF010E94920EFE019701A801DA9498
:101FD00069F7DF90EF90FF900F911F91CF91DF9104
:101FE00008959F938F937F936F93FF93EF939B013C
:101FF000AC010E94700DEF91FF910E94CA0F2F91CA
:102000003F914F915F910C94700D0E944C0D08F41C
:102010008FEF08959F930E9474100F9007FCEE5F5E
:102020000C949D1019F416F40C94E30D0C945D10AF
:102030000E940D0EB8F39923C9F3B6F39F57550BC1
:1020400087FF0E946B100024A0E640EA90018058B0
:102050005695979528F4805C660F771F881F20F0AF
:1020600026173707480730F4621B730B840B2029AF
:1020700031294A2BA69517940794202531254A2704
:1020800058F7660F771F881F20F026173707480775
:1020900030F4620B730B840B200D311D411DA09594
:1020A00081F7B901842F9158880F969587950895E7
:1020B0000E944C0D880B990B08959F3F31F0915071
:1020C00020F4879577956795B795880F911D96951C
:1020D000879597F9089591505040660F771F881F94
:1020E000D2F708950C94E30D0E940D0ED8F3E894F6
:1020F000E0E0BB279F57F0F02AED3FE049EC06C037
:10210000EE0FBB0F661F771F881F28F0B23A6207D9
:102110007307840728F0B25A620B730B840BE395A4
:102120009A9572F7803830F49A95BB0F661F771F27
:10213000881FD2F790480C945F10EF93E0FF07C020
:10214000A2EA2AED3FE049EC5FEB0E94920E0E946A
:10215000F40D0F90039401FC9058E4EAF0E00C9425
:10216000F10F052E97FB1EF400940E94C81057FD36
:1021700007D00E943E0E07FC03D04EF40C94C8100A
:1021800050954095309521953F4F4F4F5F4F0895A3
:1021900090958095709561957F4F8F4F9F4F0895D3
:1021A000EE0FFF1F0590F491E02D099481E090E07F
:0A21B000F8940C94DB10F894FFCFB4
:1021BA000000000055017705ED009C011E01FC009E
:1021CA00100100000000B9028902E9026502E50077
:1021DA0075026602564D4450565F317C315F564D4A
:1021EA004450560D0A002043616C69627261746939
:1021FA006E67206779726F00446964206E6F74207D
:10220A0066696E6420746865204D505536303530E5
:10221A00292C20706C6561736520636865636B2087
:10222A00636F6E6E656374696F6E73006E616E00C4
:08223A00696E66006F76660014
:107E0000112484B714BE81FFF0D085E080938100F7
:107E100082E08093C00088E18093C10086E0809377
:107E2000C20080E18093C4008EE0C9D0259A86E02C
:107E300020E33CEF91E0309385002093840096BBD3
:107E4000B09BFECF1D9AA8958150A9F7CC24DD24C4
:107E500088248394B5E0AB2EA1E19A2EF3E0BF2EE7
:107E6000A2D0813461F49FD0082FAFD0023811F036
:107E7000013811F484E001C083E08DD089C08234E0
:107E800011F484E103C0853419F485E0A6D080C0E4
:107E9000853579F488D0E82EFF2485D0082F10E0AE
:107EA000102F00270E291F29000F111F8ED06801E7
:107EB0006FC0863521F484E090D080E0DECF843638
:107EC00009F040C070D06FD0082F6DD080E0C81688
:107ED00080E7D80618F4F601B7BEE895C0E0D1E017
:107EE00062D089930C17E1F7F0E0CF16F0E7DF06D8
:107EF00018F0F601B7BEE89568D007B600FCFDCFD4
:107F0000A601A0E0B1E02C9130E011968C91119780
:107F100090E0982F8827822B932B1296FA010C0160
:107F200087BEE89511244E5F5F4FF1E0A038BF0790
:107F300051F7F601A7BEE89507B600FCFDCF97BE46
:107F4000E89526C08437B1F42ED02DD0F82E2BD052
:107F50003CD0F601EF2C8F010F5F1F4F84911BD097
:107F6000EA94F801C1F70894C11CD11CFA94CF0C13
:107F7000D11C0EC0853739F428D08EE10CD085E9AC
:107F80000AD08FE07ACF813511F488E018D01DD067
:107F900080E101D065CF982F8091C00085FFFCCF94
:107FA0009093C60008958091C00087FFFCCF809118
:107FB000C00084FD01C0A8958091C6000895E0E648
:107FC000F0E098E1908380830895EDDF803219F02E
:107FD00088E0F5DFFFCF84E1DECF1F93182FE3DFCA
:107FE0001150E9F7F2DF1F91089580E0E8DFEE27F6
:047FF000FF270994CA
:027FFE00040479
:0400000300007E007B
:00000001FF